:100000000C94C7010C94E4010C94E4010C94E401F9
:100010000C94E4010C94E4010C94E4010C94E401CC
:100020000C94E4010C94E4010C94E4010C94E401BC
:100030000C94E4010C94E4010C94E4010C94E401AC
:100040000C94E4010C94E4010C94E4010C94E4019C
:100050000C94E4010C94E4010C94E4010C94E4018C
:100060000C94E4010C94E4010C94E4010C94E4017C
:100070000C94E4010C94E4010C94E4010C94E4016C
:100080000C94E4010C94E4010C94E4010C94E4015C
:100090000C94E4010C94E4010C94E4010C94E4014C
:1000A0000C94E4010C94E4010C94E4016E616E0084
:1000B000696E6600000000000000005F000000079D
:1000C000000700147F147F14242A7F2A12231308A8
:1000D000646236495522500005030000001C22418D
:1000E000000041221C0014083E081408083E0808BD
:1000F0000050300000080808080800606000002078
:10010000100804023E5149453E00427F40004261D2
:100110005149462141454B311814127F102745455E
:1001200045393C4A49493001710905033649494975
:1001300036064949291E00363600000056360000B2
:10014000081422410014141414140041221408024B
:1001500001510906324979413E7E1111117E7F49D4
:100160004949363E414141227F4141221C7F494954
:1001700049417F090909013E4149497A7F08080838
:100180007F00417F41002040413F017F0814224110
:100190007F404040407F020C027F7F0408107F3E7A
:1001A0004141413E7F090909063E4151215E7F09D7
:1001B000192946464949493101017F01013F404023
:1001C000403F1F2040201F3F4038403F6314081429
:1001D0006307087008076151494543007F414100AA
:1001E00002040810200041417F0004020102044083
:1001F00040404040000102040020545454787F489D
:100200004444383844444420384444487F385454A3
:100210005418087E0901020C5252523E7F08040411
:100220007800447D40002040443D007F1028440079
:1002300000417F40007C041804787C08040478386E
:10024000444444387C14141408081414187C7C08A2
:100250000404084854545420043F4440203C404087
:10026000207C1C2040201C3C4030403C442810286E
:10027000440C5050503C4464544C440008364100F7
:1002800000007F00000041360800100808100878C0
:100290004641467800407A10F35A00A0724E180981
:1002A0000010A5D4E80000E87648170000E40B54DD
:1002B000020000CA9A3B000000E1F50500008096AC
:1002C0009800000040420F000000A08601000000DE
:1002D000102700000000E803000000006400000098
:1002E00000000A00000000000100000000002C7661
:1002F000D888DC674F0823DFC1DFAE59E1B1B7967C
:10030000E5E3E453C63AE651997696E8E6C28426D8
:10031000EB898C9B62ED407C6FFCEFBC9C9F40F2B4
:10032000BAA56FA5F490055A2AF75C936B6CF96730
:100330006DC11BFCE0E40D47FEF520E6B500D0EDF5
:10034000902E0300943577050080841E080000205D
:100350004E0A000000C80C333333330F986E1283FB
:100360001141EF8D2114893BE65516CFFEE6DB18CF
:10037000D1844B381BF77C1D901DA4BBE424203294
:1003800084725E228100C9F124ECA1E53D2711248D
:100390001FBECFEFDAE0DEBFCDBF11E0A0E0B1E0DD
:1003A000E8EFF8E202C005900D92A434B107D9F746
:1003B00013E0A4E4B1E001C01D92A83EB107E1F74B
:1003C0000E9495070C947A140C94000080E48093AA
:1003D0007C0087E880937A00089590917C00987F54
:1003E000982B90937C0080917A00806480937A00AF
:1003F00080917A0086FDFCCF2091780030917900C1
:10040000C9010895569A1BB8519821982798509879
:10041000209885988698229A239A3F9A08955F9209
:100420006F927F928F929F92AF92BF92CF92DF9204
:10043000EF92FF920F931F93CF93DF937C018B0179
:10044000FC0164817581868197810E94450FEB01D3
:10045000F70160807180828093805088F801648108
:100460007581868197810E94450FF8012189A080BE
:10047000B180C280D3800089F7018189AE01480F25
:10048000511D6417750704F5620F711DC617D70754
:10049000DCF4C401B3010E94450FEB01C601B501B4
:1004A0000E94450FCE01850D911D6817790764F4F0
:1004B00090E0600F711DC617D7070CF091E081E046
:1004C0009827292F30E002C020E030E0C901DF91F9
:1004D000CF911F910F91FF90EF90DF90CF90BF9041
:1004E000AF909F908F907F906F905F900895E09174
:1004F000B401F091B5018AE290E09183808328E114
:1005000030E0338322831582148283E090E0978366
:100510008683A091B201B091B301B387A2871186FF
:10052000108687E290E011969C938E9313963C93ED
:100530002E9312971996FC93EE9318971B961C9284
:100540001E921A970895E091B201F091B30160856F
:100550007185DB011B961C921E921A9711861086DC
:10056000A091B401B091B50116964D915C91179789
:100570008D919C911197840F951F91838083149680
:100580002D913C91159712968D919C911397820F06
:10059000931F938382835783468335832483B38752
:1005A000A2871996FC93EE931897F093B501E09308
:1005B000B4017093B3016093B2010895E091B40166
:1005C000F091B5012281338137FF05C080E390E0CF
:1005D0009383828308958081918197FF05C084E58C
:1005E00090E0918380830895213331051CF01382BC
:1005F000128208958535910514F0118210820895B4
:10060000EF92FF920F931F93DF93CF93CDB7DEB797
:100610002C970FB6F894DEBF0FBECDBFE982FA82E9
:100620000B831C832D833E834F83588769877A878A
:100630008B879C874B815C8169817A81E091B401D1
:10064000F091B501228133810190F081E02DCA0142
:10065000029682179307ACF02E5F3F4F24173507A1
:1006600084F0CB0102968E179F075CF090E03296E3
:10067000E617F7070CF491E081E09827292F30E086
:1006800002C020E030E0C9012C960FB6F894DEBF1E
:100690000FBECDBFCF91DF911F910F91FF90EF90D3
:1006A0000895EF92FF920F931F93CF93DF93E09102
:1006B000B401F091B501C285D385E880F9800A8143
:1006C0001B812C813D814E815F81688579858A857A
:1006D0009B850E940003892B19F021E030E007C0C0
:1006E0000A84DB85C02D209741F720E030E0C90166
:1006F000DF91CF911F910F91FF90EF90089581E0CE
:100700000E94ED019093B1018093B00124E630E0A6
:10071000829FB001839F700D929F700D112480E025
:1007200090E00E94760F20E030EC4FE754E40E9406
:10073000DD0E0E94450F70934B0160934A010895AE
:10074000FF920F931F93CF93DF938C01FC01648181
:100750007581868197810E94450FDB01F8014081F8
:10076000518162817381F088E091B401F091B5010B
:1007700022813381C081D181F8018189FD01E80F97
:10078000F11D2E173F07D4F42D5F3F4F2A173B076B
:10079000ACF0CB01BA010E94450FCB018F0D911D2A
:1007A000C817D9075CF490E02296C617D7070CF457
:1007B00091E081E09827292F30E002C020E030E06E
:1007C000C901DF91CF911F910F91FF900895089576
:1007D000E091B401F091B501428153810190F08123
:1007E000E02D4230510594F44E5F5F4F4617570796
:1007F0006CF02E173F0754F020E03296E817F90707
:100800000CF421E081E0282730E002C020E030E055
:10081000C90108950F931F93CF93DF938C010E941A
:10082000961264E570E00E94E210EC010E949612BC
:1008300060E370E00E94E21008978CF3A2977CF3CB
:100840000E94961264E570E00E94E210AA2797FDCC
:10085000A095BA2FBC01CD010E94780FF8016083EA
:100860007183828393830E94961260E370E00E94FA
:10087000E210AA2797FDA095BA2FBC01CD010E94D6
:10088000780FF8016483758386839783DF91CF9116
:100890001F910F9108954F925F926F927F928F9266
:1008A0009F92AF92BF92CF92DF92EF92FF920F93FF
:1008B0001F93CF93DF93482E562EAA24BB243EC00D
:1008C000BE01882777FD8095982F0E94780F20E041
:1008D00030E040E05EE30E947F100E94B30F7B0196
:1008E0008C01D52CDC0EC401B3010E94780FA80145
:1008F00097010E94620E0E94450FDC01CB018A5CC9
:100900009E4FFC01408150E0CE018095909587700C
:10091000907002C0559547958A95E2F741708C2DED
:100920006D2D0E94340B2196C330D10549F60894F1
:10093000A11CB11CF3E0AF16B10451F0C0E0D0E04F
:10094000C42CCA0C3501882477FC8094982CB8CF2D
:10095000DF91CF911F910F91FF90EF90DF90CF909B
:10096000BF90AF909F908F907F906F905F904F90CF
:100970000895CF93DF93C091B401D091B5018881E0
:100980006A810E944B040A84DB85C02D2097B9F749
:10099000DF91CF910895CF92DF92EF92FF920F9364
:1009A0001F936C01E090B401F090B5018CE090E0F1
:1009B0000E9440118C019093B5018093B401F7011E
:1009C00091878087F60160817181828193810E9485
:1009D000450FF80171836083F6016481758186811A
:1009E00097810E94450FF80173836283F701868126
:1009F0009781F80197838683F70184819581F801B7
:100A000095838483F386E2861F910F91FF90EF9088
:100A1000DF90CF9008958CE090E00E944011809389
:100A2000B4019093B5018CE090E00E944011809356
:100A3000B2019093B3010895CF93DF93E091B40195
:100A4000F091B501C285D385CF010E94ED110A84D2
:100A5000DB85C02D209711F0CE01F7CFDF91CF912C
:100A6000089580912301909124010197909324018E
:100A7000809323010E941C050E940B050E947702AF
:100A800081E090E090934901809348010895CF93CD
:100A9000DF93EC010E945103892B11F00E94310574
:100AA000CE010E94A003892B39F1CE010E94CB0414
:100AB000CE010E940A048091460190914701892B42
:100AC00049F080914401909145010296909345012F
:100AD0008093440180914401909145010196909347
:100AE00045018093440185B198E0892785B985B196
:100AF00094E0892785B9479ADF91CF910895499B62
:100B000013C0E091B401F091B50184819581039700
:100B100061F11092490110924801178216828DEFFF
:100B20009FEF9583848314C0199B14C0E091B40196
:100B3000F091B501868197810397B9F01092490130
:100B400010924801158214828DEF9FEF9783868360
:100B50002A9A19C01F9B1AC0E091B401F091B50107
:100B6000848195818D5F9F4F19F40E94310508950E
:100B700010924901109248011782168283E090E09A
:100B8000958384832B9A0E94DE020895489B29C096
:100B9000A091B401B091B50116968D919C911797D3
:100BA0008D5F9F4F19F40E94310519C010924901C1
:100BB0001092480188EE93E028EC30E0F90131977B
:100BC000F1F70197D9F715961C921E92149783E0BE
:100BD00090E017969C938E9316970E94DE022B9AB4
:100BE0000895189B09C085B198E0892785B985B11A
:100BF00094E0892785B908950E94DE022B982A98EF
:100C000008958091210190912201019690932201F3
:100C1000809321018151974224F010922201109279
:100C2000210180912101909122010E949B1208953F
:100C30000E942C0B80E060E040E051E00E94010D3A
:100C400080E067E04DE051E00E94010D0E94260D1A
:100C500080E29EE428EC30E0F9013197F1F701974A
:100C6000D9F70E942C0B0E948B0D089580914401AE
:100C7000909145018A309105B4F06AE070E00E94DD
:100C8000E210462F405D80E060E00E94B70C80914A
:100C90004401909145016AE070E00E94E210482F03
:100CA000405D86E003C0482F405D80E060E00E9428
:100CB000B70C8FE060E048E20E94B70C409123013E
:100CC000405D84E160E00E94B70C8AE160E049E2A7
:100CD0000E94B70C08952F923F924F925F926F92AD
:100CE0007F928F929F92AF92BF92CF92DF92EF92BC
:100CF000FF920F931F93DF93CF93CDB7DEB7C45509
:100D0000D0400FB6F894DEBF0FBECDBF0E940B05DA
:100D10000E9496128C010E9496125C010E94260D80
:100D20000E947702C80164E570E00E94E210AA27E1
:100D300097FDA095BA2FBC01CD010E94780F6B01E1
:100D40007C01C50160E370E00E94E210AA2797FDD4
:100D5000A095BA2FBC01CD010E94780F8B019C0198
:100D60001E010894211C311CC101B701A601F3E04A
:100D7000EF2EE3E0CE2EB7E2AB2EB1E0BB2E0E9409
:100D8000A80DA6E14A2E512C4C0E5D1EC20140E07A
:100D900050E06CE772E400E010E020E030E0EE2488
:100DA000E394FCE0CF2EEAE2AE2EE1E0BE2E0E94FC
:100DB000A80D2BE2622E712C6C0E7D1EC30140E04B
:100DC00050E068E272E400E010E020E132E40E94CA
:100DD000A80D90E4892E912C8C0E9D1EC40140E03C
:100DE00050E060EE71E400E010E020E132E40E94A7
:100DF000A80D80E480937C0087E880937A00C22C61
:100E0000232C81E0A82EB12CE42C452C062D672C38
:100E1000182D892C55C00E942C0B0E9436060E946A
:100E200001068091480190914901019711F00E94BB
:100E3000A3020E947F050E947F030E94DE028C2D88
:100E4000922D0E9447058C2D922D0E94D00D84EB8F
:100E500091E00E94B9047D9B04C01092470110925A
:100E600046017E9B04C0B0924701A092460180914A
:100E7000460190914701892B01F18E2D942D0E94FE
:100E8000D00D802F962D0E94D00D812F982D0E947D
:100E9000D00D8E2D942D0E94A003892B61F4802FFC
:100EA000962D0E94A003892B31F4812F982D0E944A
:100EB000A003892B11F00E9431050E94260D47984E
:100EC0008091230190912401181619060CF4A3CFE8
:100ED0008EEE92E028EC30E0F9013197F1F70197BE
:100EE000D9F70E942C0B85E264E146E151E00E94B3
:100EF000010D0E94260DCC5ADF4F0FB6F894DEBFCD
:100F00000FBECDBFCF91DF911F910F91FF90EF905A
:100F1000DF90CF90BF90AF909F908F907F906F9019
:100F20005F904F903F902F900895E1E6F0E080E8C9
:100F3000808382E080838FE30E945A0D0E9418060E
:100F40000E946B0680E090E00895A1E1B0E0EBEA3A
:100F5000F7E00C94F5103C017F876E876A01FC0175
:100F600017821682838181FD03C06FEF7FEF6FC30D
:100F70009E012F5F3F4F398B288BF3012381EE8534
:100F8000FF8523FD859123FF8191FF87EE878823CD
:100F900009F45AC3853251F4EE85FF8523FD85910E
:100FA00023FF8191FF87EE87853229F490E0B3011A
:100FB0000E949413E2CF982F10E0882499241032D5
:100FC000B0F49B3269F09C3228F4903251F09332A5
:100FD00071F40BC09D3239F0903349F4116028C090
:100FE0001260146025C0186023C0106121C017FD75
:100FF0002AC0892F80538A3078F416FF06C0FAE0A1
:101000009F9E902C1124980E13C03AE0839E802C52
:101010001124880E10620CC09E3221F416FD14C3F8
:10102000106406C09C3611F4106802C0983659F45A
:10103000EE85FF8523FD959123FF9191FF87EE8734
:10104000992309F0BCCF892F8554833020F4812F58
:101050008061905E07C0892F8556833008F09FC15C
:10106000812F8F7E86FD02C076E0972E6FE3F62EED
:10107000F822953619F4F0E4FF2A07C0963619F4E1
:1010800020E8F22A02C091109A94F7FE0AC03BE3CE
:10109000391518F45CE3B52E02C0B92CB39427E0DF
:1010A00009C047E0491520F4BB2447E0942EF7CF50
:1010B000292DBB24C60104969D878C87F60160818B
:1010C000718182819381AE014F5F5F4F0B2D0E9432
:1010D000A6126C010981202E332400FF04C003FDF9
:1010E00002C01DE209C0F1FE02C01BE205C0F2FC15
:1010F00002C010E001C010E2C1018C709070892B19
:10110000B9F1112311F483E001C084E0881510F0D7
:1011100088240AC0881AF3FC07C080E290E0B3017B
:101120000E9494138A94C9F7112329F0812F90E02B
:10113000B3010E94941323FE03C00CEA10E00EC01A
:1011400000EB10E00BC0E114F10409F0805290E0D4
:10115000B3010E9494130F5F1F4F05C0EF2CFF24B3
:10116000F0E1EF22FF24F8018491882361F714C194
:10117000F7FE12C0BC0C24FE04C08A81813309F43E
:10118000BA941B141CF0BB24B3942DC0F8E0FB15DB
:1011900050F538E0B32E27C0F6FC25C0892D90E02D
:1011A0008C159D054CF02CEFC2162FEFD20624F0C3
:1011B00030E8F32A01C09A94992049F0E2E0F0E087
:1011C000EC0FFD1FE90DF11D80818033A1F3F7FEC7
:1011D0000AC0B92CB394892D90E0C816D90614F032
:1011E000992401C09C18F7FC03C025E030E009C039
:1011F0001C141D041CF021E030E003C096012F5F99
:101200003F4F112311F02F5F3F4F992029F0892D77
:1012100090E00196280F391F882D90E02817390794
:1012200014F0882401C0821A4F2C5524C201897001
:101230009070892B39F008C080E290E0B3010E94E1
:1012400094138A948820C1F7112329F0812F90E00C
:10125000B3010E94941343FE07C008C080E390E0EE
:10126000B3010E9494138A948820C1F7F7FE46C008
:101270008601D7FE02C000E010E076010894E11C70
:10128000F11CE01AF10A41E050E04C0F5D1FE40E42
:10129000F51E26014B185108892D90E0AA24BB2485
:1012A000A81AB90A5FEF0F3F150729F48EE290E004
:1012B000B3010E949413C016D10634F040165106B3
:1012C0001CF4F701808101C080E3015010400894B4
:1012D000E11CF11C0A151B052CF090E0B3010E94E3
:1012E0009413E0CF0C151D0539F49A81963318F448
:1012F000953311F424FE81E390E04BC08A81813361
:1013000009F00F7E90E0B3010E9494139920A1F0A0
:101310008EE290E0B3010E94941312E0E1E0F0E06D
:10132000EC0FFD1FE10FF11D1F5F808190E0B30105
:101330000E9494139A9491F744FC03C085E690E0D0
:1013400002C085E490E0B3010E949413D7FC05C06D
:10135000C114D10441F404FF06C0D094C194D10853
:10136000D3948DE201C08BE290E0B3010E9494130C
:1013700080E305C08F5F26EF3FEFC20ED31E3AE039
:10138000C316D104BCF790E0B3010E949413C601C8
:10139000C096B3010E949413CC84DD8452C193366D
:1013A00031F0933799F0933509F059C023C0F60115
:1013B000808189835E010894A11CB11C22E030E089
:1013C000C20ED31E21E0E22EF12C12C0F601A08045
:1013D000B18016FD03C06FEF7FEF02C0692D70E092
:1013E00022E030E0C20ED31EC5010E9489137C01A9
:1013F0001F7713C0F601A080B18016FD03C06FEF08
:101400007FEF02C0692D70E022E030E0C20ED31EF3
:10141000C5010E947E137C01106813FF07C01BC02A
:1014200080E290E0B3010E9494138A94882D90E0AA
:10143000E816F906A8F30FC0F50117FD859117FF0F
:1014400081915F0190E0B3010E94941381108A940E
:101450000894E108F108E114F10471F7F2C0943640
:1014600011F0993689F517FF08C0F6012081318106
:101470004281538184E090E00AC0F601808191812D
:101480009C01442737FD4095542F82E090E0C80E20
:10149000D91E9FE6F92EF12257FF09C050954095BD
:1014A000309521953F4F4F4F5F4F90E8F92ACA0181
:1014B000B901AE014F5F5F4F2AE030E00E94C013D8
:1014C000E82EE889EE1A41C0953721F41F7E2AE004
:1014D00030E01CC0197F9F3661F0903720F49835BA
:1014E00009F0B2C00FC0903739F0983709F0ACC09E
:1014F00004C028E030E00AC0106114FD146020E14F
:1015000030E004C014FD166020E132E017FF08C08F
:10151000F601608171818281938144E050E008C0CE
:10152000F60180819181BC0180E090E042E050E0D2
:10153000C40ED51EAE014F5F5F4F0E94C013E82E50
:101540005889E51A8FE7F82EF122F6FE0BC08EEFD0
:10155000F822E91438F4F4FE07C0F2FC05C09FEE4F
:10156000F92202C01E2D01C0192DF4FE0DC0FE018E
:10157000EE0DF11D8081803319F4E9EEFE2208C0E2
:101580001F5FF2FE05C003C08F2D867809F01F5F34
:101590000F2DF3FC14C0F0FE0FC0181510F09E2C98
:1015A0000BC09E2C980C911A182D06C080E290E07A
:1015B000B3010E9494131F5F1815C0F304C01815DF
:1015C00010F4811A01C0882404FF0FC080E390E06A
:1015D000B3010E94941302FF1DC001FD03C088E700
:1015E00090E00EC088E590E00BC0802F867891F0E7
:1015F00001FF02C08BE201C080E2F7FC8DE290E0C7
:10160000B3010E94941306C080E390E0B3010E94EE
:1016100094139A94E914C0F3EA94E1E0F0E0EC0F3B
:10162000FD1FEE0DF11D808190E0B3010E94941327
:10163000EE2091F706C080E290E0B3010E9494137F
:101640008A948820C1F799CCF30166817781CB0118
:101650006196E2E10C941111ECEEF1E0119283E05D
:10166000E43EF807D9F70895843580F5603370F5C6
:10167000262F269526952695677090E0442399F0AD
:10168000E4E52E9FF0011124E80FF91FE451FE4F0D
:1016900081E090E002C0880F991F6A95E2F72081EF
:1016A000282B20830895E4E52E9FF0011124E80FF4
:1016B000F91FE451FE4F81E090E002C0880F991FAE
:1016C0006A95E2F7809520812823208308952F9240
:1016D0003F924F925F926F927F928F929F92AF92C2
:1016E000BF92CF92DF92EF92FF920F931F93DF93FF
:1016F000CF93CDB7DEB72D970FB6F894DEBF0FBEF0
:10170000CDBFD82EC62E142F022F8417F9F4A62E83
:10171000BB24E22EFF240EC08D2D6A2D41E00E94D5
:10172000340BC01620F40894A11CB11C03C008940B
:10173000A108B108C01628F4EA14FB040CF4FEC09A
:10174000EBCFAE14BF040CF4F9C0E6CF282F30E085
:101750006017F9F4C9015C01E42EFF240EC08A2D44
:101760006C2D41E00E94340BD11620F40894A11C8A
:10177000B11C03C00894A108B108D11628F4EA14DA
:10178000FB040CF4DBC0EBCFAE14BF040CF4D6C0EA
:10179000E6CF842F90E09A838983C9015C01698137
:1017A0007A81681B790B882777FD8095982F0E9496
:1017B000780F6F83788789879A87202E33244C2C63
:1017C0005524B10164197509882777FD8095982FF4
:1017D0000E94780F3B014C012F81388549855A853D
:1017E0000E94DD0E6B837C838D839E8320E030E03E
:1017F00040E050E00E947B1087FF0DC0C401B301A0
:1018000090582F81388549855A850E94DD0E6B835B
:101810007C838D839E830F2EF0E0CF2EF0E0DF2EB1
:10182000F0E0EF2EF0E0FF2EF02D70C0AB868A2D99
:10183000642D41E00E94340BC701B6012B813C812D
:101840004D815E810E94620E31C08B85642D41E026
:101850000E94340B1D861C86C401B30120E030E0D9
:1018600040E050E00E947B10181624F4E1E0F0E024
:10187000FD87EC8700E010E0C401B30120E030E018
:1018800040E050E00E94D90E882314F401E010E0FB
:101890008C859D85801B910B480E591EC701B60192
:1018A00020E030E040E85FE30E94610E6B017C01C4
:1018B00020E030E040E05FE30E947B1088239CF052
:1018C000C401B30120E030E040E050E00E947B1012
:1018D00018162CF4241435040CF0B7CF04C04214AD
:1018E00053040CF0B2CF6F81788589859A8520E00A
:1018F00030E040E050E00E947B10181624F4089479
:10190000A11CB11C03C00894A108B1086F8178859F
:1019100089859A8520E030E040E050E00E947B100D
:10192000181634F4E981FA81EA15FB053CF07ECF04
:1019300089819A81A816B9060CF078CF2D960FB63A
:10194000F894DEBF0FBECDBFCF91DF911F910F91F5
:10195000FF90EF90DF90CF90BF90AF909F908F90CF
:101960007F906F905F904F903F902F9008959F923F
:10197000AF92BF92CF92DF92EF92FF920F931F939D
:10198000CF93DF93982EC62E85E0489FE001112467
:10199000C05AD04000E081E0A82EB12C18C0612FC1
:1019A0006C0DA501012E02C0440F551F0A94E2F7E9
:1019B0004E215F21012E02C0559547950A94E2F70A
:1019C0008D2D0E94340B1F5F183049F70F5F0530D3
:1019D00061F0FE01E00FF11DEC54FF4F10E0E491C7
:1019E000D02ED90CEE2EFF24EFCFDF91CF911F9197
:1019F0000F91FF90EF90DF90CF90BF90AF909F90AE
:101A00000895EF92FF920F931F93CF93DF93F82ED9
:101A1000062F142F242F352FC901EC0195E0E92E54
:101A200008C08E9DC00111248F0D602F0E94B70C3D
:101A300021969E01211B822F4881442391F7DF913B
:101A4000CF911F910F91FF90EF900895CF93DF9367
:101A500080E060E00E949B0DCCEED1E081E06991D6
:101A60000E94390D83E0C43ED807C1F7DF91CF91C2
:101A7000089595B18295880F807E9F7D982B95B9AA
:101A80005F9827E030E070E08F98CB01022E02C013
:101A9000959587950A94E2F780FF02C02E9A01C0BF
:101AA0002E988F9A215030408FEF2F3F380761F7E3
:101AB0005F9A08951F93182F579A249A259A269A69
:101AC000879A2C985F9A2C9A80E061E20E94390DE7
:101AD000106880E0612F0E94390D80E064E00E9470
:101AE000390D80E063E10E94390D80E06CE00E94D6
:101AF000390D80E060E20E94390D80E06CE00E94C8
:101B0000390D80E060E40E94390D80E060E80E94B9
:101B1000390D1F910895CF93DF93C0E0D0E081E0AD
:101B200060E00E94390D219681E0C83FD807B9F7DF
:101B3000DF91CF9108951F93182F606480E00E9479
:101B4000390D106880E0612F0E94390D1F910895B2
:101B5000AF92BF92CF92EF920F931F93FC014083FD
:101B60005183628373830483158326833783E08ADA
:101B7000C18AB48AA38A81E0828B80E090E0A0E0F1
:101B8000B0E080879187A287B38784879587A687EF
:101B9000B7871F910F91EF90CF90BF90AF900895AE
:101BA0003F924F925F926F927F928F929F92AF92ED
:101BB000BF92CF92DF92EF92FF920F931F93CF933A
:101BC000DF93EC018A89882309F469C0688970E091
:101BD000882777FD8095982F0E94780F20E030E0CD
:101BE00040E05EE30E947F100E94C60E0E944A0FF2
:101BF000362E882447C0092D10E0B801882777FDCC
:101C00008095982F0E94780F20E030E040E05EE35E
:101C10000E947F100E94B30F6B017C016881798163
:101C20008A819B810E944A0FA92CA60E6C817D811E
:101C30008E819F810E944A0FB82CB60EC301B2015B
:101C40000E94780FA70196010E94620E0E94450F24
:101C5000EB89FC89E60FF71F408150E00095109555
:101C60000770107002C0559547950A95E2F74170CC
:101C70008A2D6B2D0E94340B93948889981608F452
:101C8000BACF83948989881650F4839CC0011124AB
:101C900099242C01662457FC6094762CEECFDF91BA
:101CA000CF911F910F91FF90EF90DF90CF90BF9059
:101CB000AF909F908F907F906F905F904F903F90EC
:101CC00008955058BB27AA270ED0C4C1B5D130F013
:101CD000BAD120F031F49F3F11F41EF4AAC10EF4E2
:101CE000E095E7FB77C1E92FC6D180F3BA17620709
:101CF00073078407950718F071F49EF5F5C10EF48B
:101D0000E0950B2EBA2FA02D0B01B90190010C010B
:101D1000CA01A0011124FF27591B99F0593F50F423
:101D2000503E68F11A16F040A22F232F342F44277B
:101D3000585FF3CF469537952795A795F040539573
:101D4000C9F77EF41F16BA0B620B730B840BBAF043
:101D50009150A1F0FF0FBB1F661F771F881FC2F7AE
:101D60000EC0BA0F621F731F841F48F487957795C2
:101D70006795B795F7959E3F08F0B3CF9395880F79
:101D800008F09927EE0F97958795089596D180F0E2
:101D90009F3740F491110EF4A8C160E070E080E834
:101DA0009FE3089526F01B16611D711D811D18C14A
:101DB00032C1ECD008F481E008950CD04BC143D17E
:101DC00040F03AD130F021F45F3F19F003C15111D6
:101DD0008CC12FC150D198F39923C9F35523B1F386
:101DE000951B550BBB27AA2762177307840738F08A
:101DF0009F5F5F4F220F331F441FAA1FA9F333D0E9
:101E00000E2E3AF0E0E830D091505040E695001C9C
:101E1000CAF729D0FE2F27D0660F771F881FBB1F58
:101E2000261737074807AB07B0E809F0BB0B802D32
:101E3000BF01FF2793585F4F2AF09E3F510568F07E
:101E4000C9C053C15F3FECF3983EDCF386957795AC
:101E50006795B795F7959F5FC9F7880F911D969580
:101E6000879597F90895E1E0660F771F881FBB1FDC
:101E7000621773078407BA0720F0621B730B840B89
:101E8000BA0BEE1F88F7E095089504D06894B1115D
:101E90002CC10895F8D088F09F5790F0B92F99275A
:101EA000B751A0F0D1F0660F771F881F991F1AF065
:101EB000BA95C9F712C0B13081F016D1B1E00895DA
:101EC00013C1672F782F8827B85F39F0B93FCCF35B
:101ED000869577956795B395D9F73EF4909580955B
:101EE000709561957F4F8F4F9F4F0895E89409C07B
:101EF00097FB3EF490958095709561957F4F8F4F3D
:101F00009F4F9923A9F0F92F96E9BB279395F69552
:101F1000879577956795B795F111F8CFFAF4BB0FD0
:101F200011F460FF1BC06F5F7F4F8F4F9F4F16C034
:101F3000882311F096E911C0772321F09EE8872FBE
:101F4000762F05C0662371F096E8862F70E060E07A
:101F50002AF09A95660F771F881FDAF7880F9695F3
:101F6000879597F90895A9D080F09F3740F4911193
:101F70000EF0BBC060E070E080E89FEB089526F4AF
:101F80001B16611D711D811D2BC045C0990F0008D6
:101F9000550FAA0BE0E8FEEF16161706E807F9073B
:101FA000C0F012161306E407F50798F0621B730BD6
:101FB000840B950B39F40A2661F0232B242B252B57
:101FC00021F408950A2609F4A140A6958FEF811DFA
:101FD000811D089597F99F6780E870E060E008959B
:101FE000882371F4772321F09850872B762F07C030
:101FF000662311F499270DC09051862B70E060E0A4
:102000002AF09A95660F771F881FDAF7880F969542
:10201000879597F908959F3F31F0915020F4879567
:1020200077956795B795880F911D9695879597F940
:1020300008959FEF80EC089500240A941616170661
:1020400018060906089500240A94121613061406A9
:1020500005060895092E0394000C11F4882352F00C
:10206000BB0F40F4BF2B11F460FF04C06F5F7F4FC4
:102070008F4F9F4F089557FD9058440F551F59F0AB
:102080005F3F71F04795880F97FB991F61F09F3F65
:1020900079F087950895121613061406551FF2CF8E
:1020A0004695F1DF08C0161617061806991FF1CFDE
:1020B00086957105610508940895E5DFA0F0BEE7F7
:1020C000B91788F4BB279F3860F41616B11D672F27
:1020D000782F8827985FF7CF869577956795B11DFC
:1020E00093959639C8F30895E894BB276627772718
:1020F000CB0197F908954ADF08F48FEF08950BD0CC
:10210000A9CF9ADF28F09FDF18F0952309F062CF5E
:1021100090CF1124EACFAFDFA0F3959FD1F3950FB5
:1021200050E0551F629FF001729FBB27F00DB11D5B
:10213000639FAA27F00DB11DAA1F649F6627B00DEB
:10214000A11D661F829F2227B00DA11D621F739FD4
:10215000B00DA11D621F839FA00D611D221F749FE2
:102160003327A00D611D231F849F600D211D822F29
:10217000762F6A2F11249F5750408AF0E1F0882370
:102180004AF0EE0FFF1FBB1F661F771F881F91507D
:102190005040A9F79E3F510570F01CCFA6CF5F3F7E
:1021A000ECF3983EDCF3869577956795B795F795B0
:1021B000E7959F5FC1F7FE2B880F911D9695879538
:1021C00097F9089597FB092E07260AD077FD04D0CA
:1021D00043D006D000201AF4709561957F4F089582
:1021E000F6F7909581959F4F08952F923F924F92C9
:1021F0005F926F927F928F929F92AF92BF92CF9297
:10220000DF92EF92FF920F931F93CF93DF93CDB79F
:10221000DEB7CA1BDB0B0FB6F894DEBF0FBECDBF17
:1022200009942A88398848885F846E847D848C84E8
:102230009B84AA84B984C884DF80EE80FD800C81F1
:102240001B81AA81B981CE0FD11D0FB6F894DEBFD4
:102250000FBECDBFED010895AA1BBB1B51E107C006
:10226000AA1FBB1FA617B70710F0A61BB70B881F26
:10227000991F5A95A9F780959095BC01CD010895B5
:10228000CF93DF93BC018230910510F462E070E0DF
:10229000A091E603B091E703ED01E0E0F0E040E05B
:1022A00050E021C0888199818617970769F48A8157
:1022B0009B81309719F09383828304C09093E70346
:1022C0008093E603FE0134C06817790738F441159E
:1022D000510519F08417950708F4AC01FE018A81B5
:1022E0009B819C01E9012097E9F641155105A9F16F
:1022F000CA01861B970B049708F4BA01E0E0F0E0EE
:102300002AC08D919C91119784179507F9F4641751
:10231000750781F412968D919C911397309719F05F
:102320009383828304C09093E7038093E603FD01C7
:1023300032964FC0CA01861B970BFD01E80FF91FAB
:102340006193719302978D939C9343C0FD018281A9
:1023500093819C01D9011097A1F68091E40390919B
:10236000E503892B41F480913B0190913C019093CE
:10237000E5038093E40340913D0150913E014115F6
:10238000510541F44DB75EB78091390190913A0102
:10239000481B590B2091E4033091E50324173507BE
:1023A000B0F4CA01821B930B8617970780F0AB012C
:1023B0004E5F5F4F8417950750F0420F531F5093A5
:1023C000E5034093E403F9016193719302C0E0E0F7
:1023D000F0E0CF01DF91CF910895CF93DF93009785
:1023E00009F450C0EC0122971B821A82A091E603E7
:1023F000B091E703109709F140E050E0AC17BD073A
:1024000008F1BB83AA83FE0121913191E20FF31FF2
:10241000AE17BF0779F48D919C911197280F391F42
:102420002E5F3F4F3983288312968D919C9113978D
:102430009B838A834115510571F4D093E703C093C0
:10244000E60320C012968D919C911397AD010097E1
:1024500011F0DC01D3CFFA01D383C28321913191F2
:10246000E20FF31FCE17DF0769F488819981280FE7
:10247000391F2E5F3F4FFA01318320838A819B8170
:1024800093838283DF91CF910895A0E0B0E0EBE4E5
:10249000F2E10C94FD10EC01A880B980CA80DB80C9
:1024A000A114B104C104D10441F484E2A82E89ED41
:1024B000B82E8BE5C82E87E0D82EC601B5012DE1D8
:1024C00033EF41E050E00E943D1427EA31E440E060
:1024D00050E00E941E147B018C01C601B5012DE164
:1024E00033EF41E050E00E943D14CA01B9012CEEE7
:1024F00034EF4FEF5FEF0E941E146E0D7F1D801FA3
:10250000911F97FF04C061507040804090486883DD
:1025100079838A839B839B013F77C901CDB7DEB75F
:10252000EAE00C9419110E94451208958FE391E09E
:102530000E9445120895A0E0B0E080933F0190937F
:102540004001A0934101B09342010895283008F062
:1025500027E03327DA01990F311D87FD916000963E
:102560006105710539F432602E5F3D9330E32A95A1
:10257000E1F708959F3F30F080387105610509F05B
:102580003C5F3C5F3D93913008F08068911DDF9384
:10259000CF931F930F93FF92EF92192F987F9695E9
:1025A000E92F96959695E90FFF27E251FD4F992760
:1025B0003327EE24FF24A701E70105900894079430
:1025C00028F4360FE71EF81E491F511D660F771FAE
:1025D000881F991F0694A1F70590079428F4E70E29
:1025E000F81E491F561FC11D770F881F991F661FB0
:1025F0000694A1F70590079428F4F80E491F561F7A
:10260000C71FD11D880F991F661F771F0694A1F75A
:102610000590079420F4490F561FC71FD81F990F24
:10262000661F771F881F0694A9F78491109517706D
:1026300041F0D695C79557954795F794E7941A9525
:10264000C1F7E4E9F2E06894159015913591659130
:10265000959105907FE27395E118F10A430B560BB3
:10266000C90BD009C0F7E10CF11E431F561FC91F4B
:10267000D01D7EF4703311F48A95E6CFE8940150B2
:1026800030F0080F0AF40027021708F4202F2395D2
:10269000022F7A3328F079E37D932A95E9F710C069
:1026A0007D932A9589F606949795679537951795A2
:1026B0001794E118F10A430B560BC90BD00998F097
:1026C00023957E9173957A3308F070E37C93201301
:1026D000B8F77E9170617D9330F0839571E37D93BF
:1026E00070E32A95E1F71124EF90FF900F911F916D
:1026F000CF91DF91992787FD90950895FC01059072
:10270000615070400110D8F7809590958E0F9F1FF3
:102710000895FC016150704001900110D8F7809538
:1027200090958E0F9F1F08950F931F93CF93DF9364
:102730008C01EB018B8181FF1BC082FF0DC02E81BC
:102740003F818C819D812817390764F4E881F981E4
:102750000193F983E88306C0E885F985802F099500
:10276000892B31F48E819F8101969F838E8302C0D5
:102770000FEF1FEFC801DF91CF911F910F910895C7
:10278000FA01AA27283051F1203181F1E8946F93A2
:102790006E7F6E5F7F4F8F4F9F4FAF4FB1E03ED048
:1027A000B4E03CD0670F781F891F9A1FA11D680FE6
:1027B000791F8A1F911DA11D6A0F711D811D911D19
:1027C000A11D20D009F468943F912AE0269F11248E
:1027D0003019305D3193DEF6CF010895462F4770F2
:1027E000405D4193B3E00FD0C9F7F6CF462F4F704D
:1027F000405D4A3318F0495D31FD4052419302D0AB
:10280000A9F7EACFB4E0A695979587957795679550
:10281000BA95C9F700976105710508959B01AC0150
:102820000A2E06945795479537952795BA95C9F777
:10283000620F731F841F951FA01D0895629FD00112
:10284000739FF001829FE00DF11D649FE00DF11D6B
:10285000929FF00D839FF00D749FF00D659FF00D1A
:102860009927729FB00DE11DF91F639FB00DE11D07
:10287000F91FBD01CF011124089597FB092E0526EC
:102880000ED057FD04D014D00AD0001C38F4509557
:102890004095309521953F4F4F4F5F4F0895F6F784
:1028A00090958095709561957F4F8F4F9F4F0895BC
:1028B000A1E21A2EAA1BBB1BFD010DC0AA1FBB1F44
:1028C000EE1FFF1FA217B307E407F50720F0A21BB6
:1028D000B30BE40BF50B661F771F881F991F1A9423
:1028E00069F760957095809590959B01AC01BD014D
:0828F000CF010895F894FFCF19
:1028F8004A6F73687561204D696C6573006E373176
:1029080037363234340047616D65204F7665720082
:102918000A010005000100E0A0E08080808080803E
:10292800808080808080E0E0E02000E803000001F3
:04293800000000009B
:00000001FF
