:100000000C94C7010C94E4010C94E4010C94E401F9
:100010000C94E4010C94E4010C94E4010C94E401CC
:100020000C94E4010C94E4010C94E4010C94E401BC
:100030000C94E4010C94E4010C94E4010C94E401AC
:100040000C94E4010C94E4010C94E4010C94E4019C
:100050000C94E4010C94E4010C94E4010C94E4018C
:100060000C94E4010C94E4010C94E4010C94E4017C
:100070000C94E4010C94E4010C94E4010C94E4016C
:100080000C94E4010C94E4010C94E4010C94E4015C
:100090000C94E4010C94E4010C94E4010C94E4014C
:1000A0000C94E4010C94E4010C94E4016E616E0084
:1000B000696E6600000000000000005F000000079D
:1000C000000700147F147F14242A7F2A12231308A8
:1000D000646236495522500005030000001C22418D
:1000E000000041221C0014083E081408083E0808BD
:1000F0000050300000080808080800606000002078
:10010000100804023E5149453E00427F40004261D2
:100110005149462141454B311814127F102745455E
:1001200045393C4A49493001710905033649494975
:1001300036064949291E00363600000056360000B2
:10014000081422410014141414140041221408024B
:1001500001510906324979413E7E1111117E7F49D4
:100160004949363E414141227F4141221C7F494954
:1001700049417F090909013E4149497A7F08080838
:100180007F00417F41002040413F017F0814224110
:100190007F404040407F020C027F7F0408107F3E7A
:1001A0004141413E7F090909063E4151215E7F09D7
:1001B000192946464949493101017F01013F404023
:1001C000403F1F2040201F3F4038403F6314081429
:1001D0006307087008076151494543007F414100AA
:1001E00002040810200041417F0004020102044083
:1001F00040404040000102040020545454787F489D
:100200004444383844444420384444487F385454A3
:100210005418087E0901020C5252523E7F08040411
:100220007800447D40002040443D007F1028440079
:1002300000417F40007C041804787C08040478386E
:10024000444444387C14141408081414187C7C08A2
:100250000404084854545420043F4440203C404087
:10026000207C1C2040201C3C4030403C442810286E
:10027000440C5050503C4464544C440008364100F7
:1002800000007F00000041360800100808100878C0
:100290004641467800407A10F35A00A0724E180981
:1002A0000010A5D4E80000E87648170000E40B54DD
:1002B000020000CA9A3B000000E1F50500008096AC
:1002C0009800000040420F000000A08601000000DE
:1002D000102700000000E803000000006400000098
:1002E00000000A00000000000100000000002C7661
:1002F000D888DC674F0823DFC1DFAE59E1B1B7967C
:10030000E5E3E453C63AE651997696E8E6C28426D8
:10031000EB898C9B62ED407C6FFCEFBC9C9F40F2B4
:10032000BAA56FA5F490055A2AF75C936B6CF96730
:100330006DC11BFCE0E40D47FEF520E6B500D0EDF5
:10034000902E0300943577050080841E080000205D
:100350004E0A000000C80C333333330F986E1283FB
:100360001141EF8D2114893BE65516CFFEE6DB18CF
:10037000D1844B381BF77C1D901DA4BBE424203294
:1003800084725E228100C9F124ECA1E53D2711248D
:100390001FBECFEFDAE0DEBFCDBF11E0A0E0B1E0DD
:1003A000EEE4FDE202C005900D92A434B107D9F746
:1003B00013E0A4E4B1E001C01D92A63EB107E1F74D
:1003C0000E9483080C94A5160C94000080E480938E
:1003D0007C0087E880937A00089590917C00877074
:1003E000987F892B80937C0080917A008064809331
:1003F0007A0080917A0086FDFCCF80917800909100
:1004000079000895569A1BB85198219827985098CA
:10041000209885988698229A239A3F9A0895CF9398
:10042000DF9380914801909149018A309105BCF099
:10043000CAE0D0E0BE010E94D61240E3460F60E061
:1004400080E00E948D0D8091480190914901BE018C
:100450000E94D61240E3480F60E086E004C040E30B
:10046000480F60E080E00E948D0D48E260E08FE080
:100470000E948D0D40910E01405D60E084E10E947C
:100480008D0D49E260E08AE1DF91CF910C948D0DF2
:100490000E94220C43E251E060E18DE00E94BC0E1C
:1004A00040E351E061E286E10E94BC0E0E940F0C25
:1004B0002FEF83ED90E3215080409040E1F700C0A2
:1004C00000000E94220C0C94210F80911001909149
:1004D00011010196813127E292072CF490931101CA
:1004E0008093100104C010921101109210018091AC
:1004F0001001909111010C94B3142F923F924F92DE
:100500005F926F927F928F929F92AF92BF92CF92A3
:10051000DF92EF92FF920F931F93CF93DF93CDB7AC
:10052000DEB762970FB6F894DEBF0FBECDBF8C0169
:100530005B01DC0114966D917D918D919C911797D3
:100540000E9424116B017C017E836D83D8018D9103
:100550009D910D90BC91A02D8F839887A987BA8714
:10056000D80150968D919D910D90BC91A02D8B87B7
:100570009C87AD87BE87F5016481758186819781EF
:100580000E94241169837A838B839C8329803A801B
:10059000D50154964D905D906D907C9057978D91BC
:1005A0009D910D90BC91A02D8F87988BA98BBA8BB4
:1005B000F50180889188A288B388B601882777FDE5
:1005C0008095982F0E945C11D80154962D913D91F1
:1005D0004D915C9157970E942A1020E030E040E84E
:1005E0005FE30E9429100E942411621573050CF428
:1005F0005BC0B101882777FD8095982F0E945C1120
:10060000A30192010E942A1020E030E040E85FE35D
:100610000E9429100E9424116C157D050CF444C021
:100620006F81788589859A850E9424116B017C01F0
:100630006F85788989899A890E9424112B013C0150
:10064000B601882777FD8095982F0E945C112B8535
:100650003C854D855E850E942A1020E030E040E810
:100660005FE30E9429100E94241164157505E4F0CF
:10067000B201882777FD8095982F0E945C11A50113
:1006800094010E942A1020E030E040E85FE30E94DD
:1006900029100E94241131E020E06C157D050CF436
:1006A00030E0832F922F02C080E090E062960FB678
:1006B000F894DEBF0FBECDBFDF91CF911F910F9198
:1006C000FF90EF90DF90CF90BF90AF909F908F9072
:1006D0007F906F905F904F903F902F900895E091A2
:1006E000B001F091B1018AE290E09183808388E1CA
:1006F00090E0938382831582148223E030E0378375
:100700002683A091AE01B091AF01B387A287118675
:10071000108627E230E011963C932E9313969C931B
:100720008E9312971996FC93EE9318971B961C9232
:100730001E921A970895CF93DF93E091AE01F09146
:10074000AF01C085D1851B861A8611861086A091BF
:10075000B001B091B10116964D915C9117978D91B2
:100760009C911197840F951F9183808314962D91EE
:100770003C91159712968D919C911397820F931F20
:10078000938382835783468335832483B387A287E9
:100790001996FC93EE931897F093B101E093B00192
:1007A000D093AF01C093AE01DF91CF910895E09156
:1007B000B001F091B101828193818433910518F0E9
:1007C0008DE290E004C0C19724F083E090E0938331
:1007D0008283808191818835910518F081E590E0D0
:1007E00006C003968835910520F083E090E0918360
:1007F00080830895EF92FF920F931F93CF93DF931F
:10080000CDB7DEB72C970FB6F894DEBF0FBECDBFC5
:10081000E982FA820B831C832D833E834F835887A2
:1008200069877A878B879C876B817C8149815A8114
:10083000E091B001F091B1012281338180819181F9
:10084000FB013296E217F307ACF02E5F3F4F2617FD
:10085000370784F09A012E5F3F4F2817390754F06D
:100860009C012E5F3F4F81E090E02417350724F470
:1008700080E002C080E090E02C960FB6F894DEBFD6
:100880000FBECDBFDF91CF911F910F91FF90EF90E1
:100890000895EF92FF920F931F93CF93DF93E09110
:1008A000B001F091B101C285D385E880F9800A8159
:1008B0001B812C813D814E815F81688579858A8588
:1008C0009B850E94FA03009731F40A84DB85C02DD2
:1008D000209759F702C081E090E0DF91CF911F91FE
:1008E0000F91FF90EF9008958CE090E00E943513F7
:1008F0009093B1018093B0018CE090E00E94351399
:100900009093AF018093AE010895CF93DF938091D0
:10091000B0019091B101FC01C285D3850E94CA1338
:100920000A84DB85C02D209711F0CE01F7CFDF912F
:10093000CF9108958091E8019091E90124E6289FE4
:10094000B001299F700D112480E090E00E945A119F
:1009500020E030EC4FE754E40E94B2100E942411D2
:1009600070930D0160930C0180910C0190910D0129
:10097000019790930D0180930C01181619063CF411
:100980008FEC97E00197F1F700C00000EDCF0895DC
:10099000EF92FF920F931F93CF93DF937C0100910F
:1009A000B0011091B1018CE090E00E943513EC0190
:1009B0009093B1018093B001F80191878087F7018E
:1009C00060817181828193810E942411798368837F
:1009D000F70164817581868197810E9424117B8350
:1009E0006A83F801868197819F838E8384819581B4
:1009F0009D838C831B870A87DF91CF911F910F9175
:100A0000FF90EF9008956F927F928F929F92AF9296
:100A1000BF92DF92EF92FF920F931F93CF93DF93DA
:100A200000D000D0CDB7DEB7E82ED62E00E010E023
:100A3000612C712C4801AA2497FCA094BA2CFE2C9E
:100A4000F00EB301882777FD8095982F0E945C11E6
:100A500020E030E040E05EE30E9469120E949711BE
:100A60009B01AC01C501B40129833A834B835C83AC
:100A70000E945C1129813A814B815C810E942A107D
:100A80000E942411FB01E05EFE4F408150E0C30153
:100A9000809590958770992702C0559547958A95BE
:100AA000E2F74170662D6D0D8F2D0E942A0C8FEF9D
:100AB000681A780A83E06816710419F60F5F1F4FF1
:100AC0000330110509F0B4CF0F900F900F900F90E5
:100AD000DF91CF911F910F91FF90EF90DF90BF902A
:100AE000AF909F908F907F906F90089580910E01AE
:100AF00090910F01019790930F0180930E010E9436
:100B000085040E9474040E946F0381E090E090933A
:100B10004501809344010895499B15C0E091B001BF
:100B2000F091B10184819581039711F40C947605BD
:100B30001092450110924401178216828DEF9FEFAB
:100B40009583848314C0199B14C0E091B001F09187
:100B5000B10186819781039749F310924501109264
:100B60004401158214828DEF9FEF978386832A9A22
:100B700008951F9B13C0E091B001F091B1018481F1
:100B80009581039699F210924501109244011782C3
:100B9000168283E090E09583848317C0489B17C03A
:100BA000E091B001F091B10186819781039619F42B
:100BB0000E9476050AC010924501109244011582E8
:100BC000148283E090E0978386832B9A0895189B84
:100BD00009C095B188E0892785B995B184E0892756
:100BE00085B908952B982A980895CF93DF93C091E3
:100BF000B001D091B1016A8188810E9403050A8405
:100C0000DB85C02D2097B9F7DF91CF9108958F92A2
:100C10009F92AF92BF92CF92DF92EF92FF920F938B
:100C20001F93CF93DF93EC017B016A01890184E577
:100C3000A82EB12C90E3892E912C0E94AE14B50100
:100C40000E94D612BC0163507109882777FD8095F8
:100C5000982F0E945C11688379838A839B830E940A
:100C6000AE14B4010E94D612BC01635071098827EA
:100C700077FD8095982F0E945C116C837D838E8315
:100C80009F8320E030E040E850E40E94AD10181649
:100C900064F020E030E040EF51E4688179818A819E
:100CA0009B810E94AD10181644F6809146019091E8
:100CB0004701892BA9F0B701CE010E947D02892B43
:100CC00009F0BBCFB601CE010E947D02892B09F04D
:100CD000B4CFB801CE010E947D02892B09F0ADCFBF
:100CE000DF91CF911F910F91FF90EF90DF90CF9008
:100CF000BF90AF909F908F9008954F925F926F92A8
:100D00007F928F929F92AF92BF92CF92DF92EF929B
:100D1000FF920F931F93CF93DF937C01FC016481BB
:100D20007581868197810E9424116B01F7014080B3
:100D300051806280738080889188A288B388E09116
:100D4000B001F091B10102811381C081D181882766
:100D500077FD8095982F0E945C11F70124893589D1
:100D6000468957890E942A1020E030E040E85FE37E
:100D70000E9429100E942411601771073CF10D5F39
:100D80001F4F0C151D0514F1C301B2010E9424115F
:100D90008B01882777FD8095982F0E945C11A50113
:100DA00094010E942A1020E030E040E85FE30E94B6
:100DB00029100E9424116C177D0744F0229681E0CF
:100DC00090E0C017D10724F480E002C080E090E0FA
:100DD000DF91CF911F910F91FF90EF90DF90CF9017
:100DE000BF90AF909F908F907F906F905F904F904B
:100DF0000895CF92DF92EF92FF920F931F93CF93BC
:100E0000DF93EC018B017A0169010E944904CE0154
:100E10000E947D06892B51F1CE010E94C8049601E3
:100E2000A701B801CE010E9407068091460190916A
:100E30004701892B49F08091480190914901029620
:100E40009093490180934801809148019091490114
:100E50000196909349018093480195B188E08927D4
:100E600085B995B184E0892785B9479ADF91CF91FB
:100E70001F910F91FF90EF90DF90CF900895CF9347
:100E8000DF93EC01A091B001B091B1011296ED9108
:100E9000FC9113974D915C91E230F1058CF4329600
:100EA000E617F7076CF02417350754F04E5F5F4FD5
:100EB00021E090E04C175D070CF420E0822F02C087
:100EC00080E090E0DF91CF9108954F925F926F9212
:100ED0007F92AF92BF92CF92EF92FF920F931F93A8
:100EE000CF93DF93CDB7DEB7CE56D1090FB6F894C6
:100EF000DEBF0FBECDBF0E9474040E94AE147C0101
:100F00000E94AE14AE968FAFAE97AF969FAFAF97DD
:100F10000E940F0C0E946F03AE968FADAE97AF96F6
:100F20009FADAF9760E370E00E94D612BC018827A6
:100F300077FD8095982F0E945C112B013C01C70121
:100F400064E570E00E94D612BC01882777FD809589
:100F5000982F0E945C11AB01BC0183E1A82E81E0B7
:100F6000B82E93E0C92E23E0E22E93018201CE0138
:100F70008E5A9F4F0E943A0F30E0A32E31E0B32EDD
:100F80004CE0C42EEE24E39400E010E0980140E031
:100F900050E06CE772E4CE01C7960E943A0F00E081
:100FA00010E020E132E440E050E068E272E4CE017B
:100FB0004C960E943A0F00E010E020E132E440E05D
:100FC00050E060EE71E4CE0101960E943A0F0E945B
:100FD000E60101E010E080910E0190910F011816DA
:100FE00019060CF068C00E94220C0E940F020E9499
:100FF000650280E00E94ED019093E9018093E80191
:101000000E949A048091440190914501019711F04A
:101010000E949B030E948C050E94D7039E012F5FB4
:101020003F4FAE01445E5F4FBE01695C7F4FCE0112
:101030008E5A9F4F0E94F906CE018E5A9F4F0E94F2
:10104000740F80EB91E00E94F5057D9B04C0109227
:101050004701109246017E9B04C010934701009304
:1010600046018091460190914701892B01F1CE0103
:10107000C7960E94740FCE014C960E94740FCE0149
:1010800001960E94740FCE01C7960E947D06892B9F
:1010900061F4CE014C960E947D06892B31F4CE017D
:1010A00001960E947D06892B11F00E9476050E9410
:1010B0000F0C479890CF2FEB84ED91E021508040AA
:1010C0009040E1F700C000000E94220C49E351E08B
:1010D00064E185E20E94BC0E0E940F0CC259DF4FF2
:1010E0000FB6F894DEBF0FBECDBFDF91CF911F9139
:1010F0000F91FF90EF90CF90BF90AF907F906F9047
:101100005F904F900895E1E6F0E080E8808383E00F
:1011100080838FE30E94F10E0E9448020E946507BF
:1011200080E090E00895A3E1B0E0E9E9F8E00C94F4
:10113000EA126C014B012A01FC011782168283819D
:1011400081FF43C3AE014F5F5F4F3A01F6019381C8
:10115000F40193FD859193FF81914F01882309F458
:1011600030C3853239F493FD859193FF81914F010E
:10117000853239F4B60190E00E94AC155201250188
:10118000E5CF10E0F12C20E02032A0F48B3269F0A2
:1011900030F4803259F0833269F420612CC08D32F2
:1011A00039F0803339F4216026C02260246023C0E6
:1011B000286021C027FD27C030ED380F3A3078F481
:1011C00026FF06C0FAE01F9F300D1124132F13C015
:1011D0004AE0F49E300D1124F32E20620CC08E32B2
:1011E00021F426FDEEC2206406C08C3611F420687E
:1011F00002C0883641F4F40193FD859193FF8191FB
:101200004F018111C1CF9BEB980F933018F42061EF
:10121000805E06C09BE9980F933008F071C12F7E65
:1012200026FF16E02F73322E853619F42064322EF5
:1012300008C0863621F4F22FF0683F2E02C011114B
:10124000115037FE07C01C3350F4EE24E394E10E36
:1012500027E00BC0183038F027E017E005C027E082
:101260004CE3E42E02C0212FE12C520144E0A40EF5
:10127000B11CF20160817181828193810E2DA301E5
:101280000E94BE142C01098100FF02C003FF07C0A9
:1012900031FC08C032FE09C030E2232E07C02DE227
:1012A000222E04C09BE2292E01C0212C802F8C709D
:1012B00019F0211068C2A8C237FE0FC0E40C04FF69
:1012C00004C08A81813309F4EA941E1474F5F8E0AD
:1012D000FE1578F588E0E82E2CC036FC2AC0812F58
:1012E00090E0841595059CF02CEF42162FEF5206E6
:1012F00074F0432D4068342E0AC0E2E0F0E0EC0FB9
:10130000FD1FE10FF11D8081803319F4115011117F
:10131000F4CF37FE0EC0EE24E394E10E812F90E06F
:10132000481659062CF4141904C0EE24E39401C0A5
:1013300010E037FE06C01414150434F4C2010196FF
:1013400005C085E090E002C081E090E021100196A8
:10135000112331F0212F30E02F5F3F4F820F931F79
:101360002F2D30E08217930714F4F81A01C0F12CE6
:10137000832D897049F4FF2039F0B60180E290E0B6
:101380000E94AC15FA94F7CF222029F0B601822DE5
:1013900090E00E94AC1533FC09C0FF2039F0B60183
:1013A00080E390E00E94AC15FA94F7CF37FE5AC064
:1013B000942D852D57FE02C090E080E0292E382E16
:1013C00020E030E0A2014E1951095D874C87A2014F
:1013D000421953095F874E87612F70E044275527D4
:1013E000461B570B598B488B5FEF2516350649F482
:1013F000B6018EE290E02A8B3B8B0E94AC153B89B4
:101400002A89421453046CF04C855D8542155305BE
:1014100044F4EE85FF85E20FF31FE60DF71D818191
:1014200001C080E351E0251A31082F5F3F4F488902
:101430005989241635064CF0B60190E02A8B3B8B77
:101440000E94AC152A893B89CFCF2414350439F486
:101450009A81963318F4953311F404FF81E3B601B1
:1014600090E04BC08A81813309F00F7EB60190E095
:101470000E94AC15111105C034FC18C085E690E03F
:1014800017C0B6018EE290E00E94AC1582E0EE2417
:10149000E394E80EF301E80FF11D8081B60190E0BE
:1014A0000E94AC1511508E2D91F7E6CF85E490E0A7
:1014B000B6010E94AC1557FC05C04114510439F423
:1014C00004FF05C05194419451088DE201C08BE2A4
:1014D000B60190E00E94AC1580E39AE049165104F1
:1014E0002CF08F5F5AE0451A5108F7CFB60190E013
:1014F0000E94AC15B601C201C0960E94AC1557C13E
:10150000833631F0833779F0833509F058C021C034
:101510005201E2E0AE0EB11CF2018081898301E04C
:1015200010E0230114C05201F2E0AF0EB11CF20131
:101530004080518026FF03C0612F70E002C06FEF32
:101540007FEFC2012A8B0E94A1158C012A892F7777
:1015500015C05201F2E0AF0EB11CF2014080518083
:1015600026FF03C0612F70E002C06FEF7FEFC20162
:101570002A8B0E9496158C012A892068322E23FD21
:101580001AC08F2D90E008171907A8F4B60180E261
:1015900090E00E94AC15FA94F4CFF20137FC8591EB
:1015A00037FE81912F01B60190E00E94AC15F11039
:1015B000FA94015011090115110579F7F8C0843624
:1015C00011F0893659F5520127FF09C0F4E0AF0E3A
:1015D000B11CF20160817181828193810AC0F2E0C5
:1015E000AF0EB11CF20160817181882777FD809573
:1015F000982F2F76322E97FF09C090958095709581
:1016000061957F4F8F4F9F4F2068322E2AE030E048
:10161000A3010E94E415E82EE6183FC0022F85378B
:1016200021F40F7E2AE030E01DC0097F8F3691F053
:1016300018F4883559F0C5C0803719F0883711F093
:10164000C0C0006104FF09C0046007C024FF08C0D7
:10165000066006C028E030E005C020E130E002C0AE
:1016600020E132E0520107FF09C0F4E0AF0EB11CE7
:10167000F201608171818281938108C0F2E0AF0E36
:10168000B11CF2016081718180E090E0A3010E94B1
:10169000E415E82EE6180F77302E36FE0BC0332DFA
:1016A0003E7FE11650F434FE0AC032FC08C0332DF0
:1016B0003E7E05C00E2D332D03C00E2D01C0012F1F
:1016C00034FF0CC0FE01EE0DF11D8081803311F45A
:1016D000397E08C032FF05C00E5F04C0832F8678B4
:1016E00009F00F5F33FD13C030FF06C01E2D0F152C
:1016F00018F41F0D101B0F2D0F1568F4B60180E2B2
:1017000090E03B8B0E94AC150F5F3B89F5CF0F1526
:1017100010F4F01A01C0F12C34FF12C0B60180E3BE
:1017200090E03B8B0E94AC153B8932FF17C031FD26
:1017300003C088E790E002C088E590E0B6010CC0E5
:10174000832F867859F031FF02C08BE201C080E21E
:1017500037FD8DE2B60190E00E94AC15E11638F439
:10176000B60180E390E00E94AC151150F7CFEA94E7
:10177000F301EE0DF11D8081B60190E00E94AC15E1
:10178000E110F5CF14C0F4E0FF1558F584E0F81A25
:1017900033FE1EC0211026C003FF2AC00CEA10E051
:1017A000F32DF0713F2EF8018491811124C0FF20A8
:1017B00009F4E5CCB60180E290E00E94AC15FA9401
:1017C000F6CFF6018681978126C08FEF9FEF23C069
:1017D000B60180E290E00E94AC15FA94F110F8CFC7
:1017E000D9CFF12CB601822D90E00E94AC15D4CF58
:1017F00000EB10E0D5CF31108052B60190E00E948E
:10180000AC150F5F1F4FCFCF23E02F1510F483E0EF
:10181000BECFF12CC1CF6396E2E10C940613CF93B7
:10182000DF9360E080E00E942E0FCAEED1E0699164
:1018300081E00E94D30E83E0C23ED807C1F7DF915A
:10184000CF910895EAEEF1E0119283E0E23EF807CD
:10185000D9F70895982F843508F56033F8F4862F6A
:10186000869586958695677024E5829FF001112400
:10187000892F90E08E0F9F1FFC01E651FE4F81E003
:1018800090E001C0880F6A95EAF7442319F090812F
:10189000892B03C0809590818923808308952F929E
:1018A0003F924F925F926F927F928F929F92AF92F0
:1018B000BF92CF92DF92EF92FF920F931F93CF933D
:1018C000DF93CDB7DEB72D970FB6F894DEBF0FBE0E
:1018D000CDBFF82E262ED42EE22E841320C0C62E85
:1018E000D12C022F10E02E1468F40C151D050CF4F9
:1018F000FBC041E06C2D8F2D0E942A0C9FEFC91A6E
:10190000D90AF1CFC016D1060CF4EEC041E06C2D1F
:101910008F2D0E942A0CE1E0CE1AD108E4CF082FC7
:1019200010E0242F30E03D872C876E111EC0FD147F
:1019300070F48C859D85801791070CF4D5C041E02B
:10194000622D802F0E942A0C0F5F1F4FF0CFEC8575
:10195000FD850E171F070CF4C7C041E0622D802FD4
:101960000E942A0C01501109E2CF6C857D85601B15
:10197000710B882777FD8095982F0E945C112B01B1
:101980003C012E2D30E03E832D83312CB9016219AC
:101990007309882777FD8095982F0E945C114B0171
:1019A0005C01A30192010E94B21069837A838B8348
:1019B0009C8320E030E0A9010E94641287FF0BC0E5
:1019C000A3019201C501B40190580E94B21069832D
:1019D0007A838B839C83C12CD12C760120E030E06C
:1019E000A901C301B2010E94641218160CF076C05E
:1019F0002C853D85201731070CF476C00B8741E01C
:101A0000622D802F0E942A0C29813A814B815C81B2
:101A1000C701B6010E942A106B017C0120E030E072
:101A200040E05FE30E94641287FF0DC020E030E0D9
:101A3000A901C301B2010E94641218160CF04BC038
:101A40000F5F1F4FCBCF20E030E0A901C501B401EB
:101A50000E9464121816CCF58D819E818215930523
:101A60002CF341E0622D8B850E942A0C81E090E0EE
:101A700098878F8320E030E0A901C501B4010E945E
:101A80006412181614F018861F82E1E0F0E0FA875D
:101A9000E98720E030E0A901C501B4010E94AD1042
:101AA00087FD02C01A8619868F81988529853A8517
:101AB000821B930B280E391E20E030E040E85FE3E4
:101AC000C701B6010E942910A7CFED81FE812E1615
:101AD0003F063CF6ABCF0150110980CF8C859D8528
:101AE000081719070CF08ACF2D960FB6F894DEBFB1
:101AF0000FBECDBFDF91CF911F910F91FF90EF905F
:101B0000DF90CF90BF90AF909F908F907F906F901D
:101B10005F904F903F902F9008957F928F929F9269
:101B2000AF92BF92CF92DF92EF92FF920F931F93EB
:101B3000CF93DF93982E862E25E0429F70011124CB
:101B400000E010E030EAE31AF108AA24A394B12CD3
:101B5000C701800F911F9C012C543F4F6901C0E0C9
:101B6000D0E0792C700EC830D105C9F0F60144914F
:101B700050E095010C2E02C0220F331F0A94E2F7A9
:101B8000422353230C2E02C0559547950A94E2F741
:101B90006C2F680D872D0E942A0C2196E4CF0F5FD1
:101BA0001F4F05301105A1F6DF91CF911F910F91C5
:101BB000FF90EF90DF90CF90BF90AF909F908F906D
:101BC0007F9008955F926F927F928F929F92AF92D3
:101BD000BF92CF92DF92EF92FF920F931F93CF931A
:101BE000DF93F82EE62ECA014A3051057CF425E039
:101BF000249F5001259FB00C112400E010E020E547
:101C0000A20EB11C88248394912C7FC06AE070E0FE
:101C10000E94D6124B0125E0289F5001299FB00C4D
:101C2000112400E010E03BE4A30EB11C6624639491
:101C3000712CC501800F911FFC01EC54FF4F6F0107
:101C4000C0E0D0E05F2C500EC830D105C9F0F601DD
:101C5000449150E093010C2E02C0220F331F0A94CE
:101C6000E2F7422353230C2E02C0559547950A9460
:101C7000E2F76C2F6E0D852D0E942A0C2196E4CF81
:101C80000F5F1F4F0A301105A1F685E0889D5001B6
:101C9000899DB00C112400E010E020E5A20EB11CDB
:101CA00088248394912CC501800F911F9C012C5492
:101CB0003F4F6901C0E0D0E07F2C700EC830D105E5
:101CC000C9F0F601449150E094010C2E02C0220F9D
:101CD000331F0A94E2F7422353230C2E02C055957A
:101CE00047950A94E2F76C2F6E0D872D0E942A0CFF
:101CF0002196E4CF0F5F1F4F05301105A1F62CC0D0
:101D00000F5F1F4F0A30110539F1C501800F911F78
:101D10009C012C543F4F6901C0E0D0E07F2C700E35
:101D2000C830D10569F3F601449150E094010C2EBE
:101D300002C0220F331F0A94E2F7422353230C2ED2
:101D400002C0559547950A94E2F76C2F6E0D872DCA
:101D50000E942A0C2196E4CFDF91CF911F910F9121
:101D6000FF90EF90DF90CF90BF90AF909F908F90BB
:101D70007F906F905F9008950F931F93CF93DF93A1
:101D8000D62F8A01C82FF80141918F01442331F0E9
:101D90006D2F8C2F0E948D0DCB5FF5CFDF91CF91F2
:101DA0001F910F91089525B130E2839FC001112446
:101DB0002F7D822B85B95F9887E090E070E08F9847
:101DC0009B01082E02C0359527950A94E2F720FF63
:101DD00002C02E9A01C02E988F9A019780F75F9AC1
:101DE0000895CF93C82F579A249A259A269A879AAE
:101DF0002C985F9A2C9A61E280E00E94D30E6C2F9F
:101E0000606880E00E94D30E64E080E00E94D30E00
:101E100063E180E00E94D30E6CE080E00E94D30E6C
:101E200060E280E00E94D30E6CE080E00E94D30E5E
:101E300060E480E00E94D30E60E880E0CF910C94D3
:101E4000D30ECF93DF93C8EFD1E060E081E00E9432
:101E5000D30E2197D1F7DF91CF910895CF93C82F5B
:101E6000606480E00E94D30E6C2F606880E0CF91A8
:101E70000C94D30EAF92BF92CF92EF920F931F9319
:101E8000CF93DF93EC01488359836A837B830C8370
:101E90001D832E833F836E2D70E080E090E00E94D2
:101EA0005A11688B798B8A8B9B8B6C2D70E080E04C
:101EB00090E00E945A116C8B7D8B8E8B9F8BBA8E1B
:101EC000A98E81E0888F188619861A861B861C8643
:101ED0001D861E861F86DF91CF911F910F91EF9077
:101EE000CF90BF90AF9008952F923F924F925F9204
:101EF0006F927F929F92AF92BF92CF92DF92EF92BA
:101F0000FF920F931F93CF93DF9300D000D0CDB7F4
:101F1000DEB7FC01208D222309F485C01C0120E0DE
:101F200030E040E05EE360897189828993890E9494
:101F300069120E9496100E942B11962EB12C6B2DC7
:101F400070E080E090E00E945C11F1012489358905
:101F5000468957890E94AD1087FF65C0B99C600112
:101F60001124A12CEE24D7FCE094FE2C0A2D10E0C5
:101F7000B801882777FD8095982F0E945C112B016E
:101F80003C01F10120893189428953890E94AD10B9
:101F900087FF47C020E030E040E05EE3C301B201CC
:101FA0000E9469120E9497119B01AC01C701B60102
:101FB00029833A834C835B830E945C1129813A8197
:101FC0004C815B810E942A100E942411F101218D15
:101FD000328DF901E60FF71F408150E00095109512
:101FE0000770112702C0559547950A95E2F7417091
:101FF000F10164817581868197814C830E942B1148
:102000001B2D160FF10160817181828193810E94E5
:102010002B11862F4C81612F8A0D0E942A0CA394CC
:10202000A5CFB3948CCF0F900F900F900F90DF91AE
:10203000CF911F910F91FF90EF90DF90CF90BF90C5
:10204000AF909F907F906F905F904F903F902F90B8
:1020500008955058BB27AA270E9441100C941212D1
:102060000E94041238F00E940B1220F039F49F3FB6
:1020700019F426F40C9401120EF4E095E7FB0C948D
:10208000D211E92F0E94231258F3BA17620773077F
:102090008407950720F079F4A6F50C945D120EF4F0
:1020A000E0950B2EBA2FA02D0B01B90190010C0168
:1020B000CA01A0011124FF27591B99F0593F50F480
:1020C000503E68F11A16F040A22F232F342F4427D8
:1020D000585FF3CF469537952795A795F0405395D0
:1020E000C9F77EF41F16BA0B620B730B840BBAF0A0
:1020F0009150A1F0FF0FBB1F661F771F881FC2F70B
:102100000EC0BA0F621F731F841F48F4879577951E
:102110006795B795F7959E3F08F0B0CF9395880FD8
:1021200008F09927EE0F9795879508950E9445121C
:1021300090F09F3748F4911116F40C945E1260E011
:1021400070E080E89FE3089526F01B16611D711D65
:10215000811D0C94D8110C94F3110E94AE1108F457
:1021600081E008950E94C6100C9412120E940B1276
:1021700058F00E94041240F029F45F3F29F00C94BB
:10218000D21151110C945E120C9401120E94231270
:1021900068F39923B1F3552391F3951B550BBB2796
:1021A000AA2762177307840738F09F5F5F4F220FDB
:1021B000331F441FAA1FA9F335D00E2E3AF0E0E8D2
:1021C00032D091505040E695001CCAF72BD0FE2F1C
:1021D00029D0660F771F881FBB1F261737074807B0
:1021E000AB07B0E809F0BB0B802DBF01FF27935868
:1021F0005F4F3AF09E3F510578F00C94D2110C9449
:102200005E125F3FE4F3983ED4F386957795679529
:10221000B795F7959F5FC9F7880F911D969587959C
:1022200097F90895E1E0660F771F881FBB1F6217BB
:1022300073078407BA0720F0621B730B840BBA0B79
:10224000EE1F88F7E09508950E942B116894B11154
:102250000C945E1208950E942B1288F09F5798F0FC
:10226000B92F9927B751B0F0E1F0660F771F881F9B
:10227000991F1AF0BA95C9F714C0B13091F00E94B5
:102280005D12B1E008950C945D12672F782F8827B6
:10229000B85F39F0B93FCCF3869577956795B395DC
:1022A000D9F73EF490958095709561957F4F8F4F4B
:1022B0009F4F0895E89409C097FB3EF49095809550
:1022C000709561957F4F8F4F9F4F9923A9F0F92FFC
:1022D00096E9BB279395F695879577956795B7957A
:1022E000F111F8CFFAF4BB0F11F460FF1BC06F5F60
:1022F0007F4F8F4F9F4F16C0882311F096E911C072
:10230000772321F09EE8872F762F05C0662371F092
:1023100096E8862F70E060E02AF09A95660F771FA6
:10232000881FDAF7880F9695879597F908950E9488
:10233000451290F09F3748F4911116F00C945E12FC
:1023400060E070E080E89FEB089526F41B16611DA5
:10235000711D811D0C94D8110C94F311990F000874
:10236000550FAA0BE0E8FEEF16161706E807F90767
:10237000C0F012161306E407F50798F0621B730B02
:10238000840B950B39F40A2661F0232B242B252B83
:1023900021F408950A2609F4A140A6958FEF811D26
:1023A000811D089597F99F6780E870E060E00895C7
:1023B000882371F4772321F09850872B762F07C05C
:1023C000662311F499270DC09051862B70E060E0D0
:1023D0002AF09A95660F771F881FDAF7880F96956F
:1023E000879597F908959F3F31F0915020F4879594
:1023F00077956795B795880F911D9695879597F96D
:1024000008959FEF80EC089500240A94161617068D
:1024100018060906089500240A94121613061406D5
:1024200005060895092E0394000C11F4882352F038
:10243000BB0F40F4BF2B11F460FF04C06F5F7F4FF0
:102440008F4F9F4F089557FD9058440F551F59F0D7
:102450005F3F71F04795880F97FB991F61F09F3F91
:1024600079F087950895121613061406551FF2CFBA
:102470004695F1DF08C0161617061806991FF1CF0A
:10248000869571056105089408950E942B12A0F0AD
:10249000BEE7B91788F4BB279F3860F41616B11D44
:1024A000672F782F8827985FF7CF86957795679560
:1024B000B11D93959639C8F30895E894BB27662714
:1024C0007727CB0197F908950E94AE1108F48FEF9A
:1024D00008950E947C120C9412120E94041238F08B
:1024E0000E940B1220F0952311F00C94D2110C9441
:1024F000011211240C945E120E94231270F3959F16
:10250000C1F3950F50E0551F629FF001729FBB27EA
:10251000F00DB11D639FAA27F00DB11DAA1F649F86
:102520006627B00DA11D661F829F2227B00DA11D39
:10253000621F739FB00DA11D621F839FA00D611DBF
:10254000221F749F3327A00D611D231F849F600DE0
:10255000211D822F762F6A2F11249F5750409AF009
:10256000F1F088234AF0EE0FFF1FBB1F661F771F95
:10257000881F91505040A9F79E3F510580F00C9460
:10258000D2110C945E125F3FE4F3983ED4F386952B
:1025900077956795B795F795E7959F5FC1F7FE2B00
:1025A000880F911D9695879597F9089597FB072EAB
:1025B00016F4009407D077FD09D00E94211307FC80
:1025C00005D03EF4909581959F4F08957095619543
:1025D0007F4F08952F923F924F925F926F927F921A
:1025E0008F929F92AF92BF92CF92DF92EF92FF9223
:1025F0000F931F93CF93DF93CDB7DEB7CA1BDB0BCF
:102600000FB6F894DEBF0FBECDBF09942A88398873
:1026100048885F846E847D848C849B84AA84B9847A
:10262000C884DF80EE80FD800C811B81AA81B98186
:10263000CE0FD11D0FB6F894DEBF0FBECDBFED019A
:102640000895AA1BBB1B51E107C0AA1FBB1FA617F9
:10265000B70710F0A61BB70B881F991F5A95A9F74B
:1026600080959095BC01CD010895CF93DF93823082
:10267000910510F482E090E0E091E403F091E5032D
:1026800020E030E0C0E0D0E0309711F1408151818E
:1026900048175907C0F04817590761F482819381A0
:1026A000209719F09B838A832BC09093E503809336
:1026B000E40326C02115310519F04217530718F419
:1026C0009A01BE01DF01EF010280F381E02DDCCF32
:1026D0002115310509F1281B390B2430310590F4FF
:1026E00012968D919C9113976115710521F0FB0154
:1026F0009383828304C09093E5038093E403FD01F8
:10270000329644C0FD01E20FF31F81939193225052
:1027100031092D933C933AC02091E2033091E303B9
:10272000232B41F420911801309119013093E303D8
:102730002093E203209116013091170121153105F4
:1027400041F42DB73EB740911A0150911B01241B53
:10275000350BE091E203F091E303E217F307A0F4F5
:102760002E1B3F0B2817390778F0AC014E5F5F4FE7
:102770002417350748F04E0F5F1F5093E303409333
:10278000E2038193919302C0E0E0F0E0CF01DF919A
:10279000CF9108950F931F93CF93DF93009709F480
:1027A0008CC0FC013297138212820091E4031091D5
:1027B000E5030115110581F420813181820F931FFA
:1027C0002091E2033091E3032817390779F5F0935C
:1027D000E303E093E20371C0D80140E050E0AE179C
:1027E000BF0750F412962D913C911397AD0121151E
:1027F000310509F1D901F3CF9D01DA013383228339
:1028000060817181860F971F8217930769F4EC012D
:1028100028813981260F371F2E5F3F4F3183208358
:102820008A819B8193838283452B29F4F093E5036E
:10283000E093E40342C01396FC93EE931297ED01EC
:10284000499159919E01240F351FE217F30771F446
:1028500080819181840F951F029611969C938E938F
:102860008281938113969C938E931297E0E0F0E01F
:10287000D80112968D919C911397009719F0F80149
:102880008C01F6CF8D919C9198012E5F3F4F820F66
:10289000931F2091E2033091E3032817390769F46D
:1028A000309729F41092E5031092E40302C01382DA
:1028B00012821093E3030093E203DF91CF911F9103
:1028C0000F9108958F929F92AF92BF92CF92DF9215
:1028D000EF92FF92CF93DF93EC01688179818A8137
:1028E0009B81611571058105910521F464E279ED03
:1028F0008BE597E02DE133EF41E050E00E94551663
:1029000049015A019B01AC01A7EAB1E40E944216B9
:102910006B017C01ACEEB4EFA50194010E9450164E
:10292000DC01CB018C0D9D1DAE1DBF1DB7FF03C08B
:102930000197A109B04888839983AA83BB839F77B5
:10294000DF91CF91FF90EF90DF90CF90BF90AF904D
:102950009F908F9008950E94621408958CE191E0F9
:102960000E9462140895A0E0B0E080931C0190934F
:102970001D01A0931E01B0931F010895283008F097
:1029800027E03327DA01990F311D87FD916000960A
:102990006105710539F432602E5F3D9330E32A956D
:1029A000E1F708959F3F30F080387105610509F027
:1029B0003C5F3C5F3D93913008F08068911DDF9350
:1029C000CF931F930F93FF92EF92192F987F9695B5
:1029D000E92F96959695E90FFF27E251FD4F99272C
:1029E0003327EE24FF24A701E701059008940794FC
:1029F00028F4360FE71EF81E491F511D660F771F7A
:102A0000881F991F0694A1F70590079428F4E70EF4
:102A1000F81E491F561FC11D770F881F991F661F7B
:102A20000694A1F70590079428F4F80E491F561F45
:102A3000C71FD11D880F991F661F771F0694A1F726
:102A40000590079420F4490F561FC71FD81F990FF0
:102A5000661F771F881F0694A9F784911095177039
:102A600041F0D695C79557954795F794E7941A95F1
:102A7000C1F7E4E9F2E068941590159135916591FC
:102A8000959105907FE27395E118F10A430B560B7F
:102A9000C90BD009C0F7E10CF11E431F561FC91F17
:102AA000D01D7EF4703311F48A95E6CFE89401507E
:102AB00030F0080F0AF40027021708F4202F23959E
:102AC000022F7A3328F079E37D932A95E9F710C035
:102AD0007D932A9589F6069497956795379517956E
:102AE0001794E118F10A430B560BC90BD00998F063
:102AF00023957E9173957A3308F070E37C932013CD
:102B0000B8F77E9170617D9330F0839571E37D938A
:102B100070E32A95E1F71124EF90FF900F911F9138
:102B2000CF91DF91992787FD90950895FC0105903D
:102B3000615070400110D8F7809590958E0F9F1FBF
:102B40000895FC016150704001900110D8F7809504
:102B500090958E0F9F1F08950F931F93CF93DF9330
:102B6000FB01238121FD03C08FEF9FEF28C022FFCF
:102B700016C046815781248135814217530744F49A
:102B8000A081B1819D012F5F3F4F318320838C93C2
:102B9000268137812F5F3F4F3783268310C0EB019B
:102BA000092F182F0084F185E02D0995892BE1F676
:102BB0008E819F8101969F838E83812F902FDF913D
:102BC000CF911F910F910895FA01AA27283051F152
:102BD000203181F1E8946F936E7F6E5F7F4F8F4F4E
:102BE0009F4FAF4FB1E03ED0B4E03CD0670F781FAD
:102BF000891F9A1FA11D680F791F8A1F911DA11D92
:102C00006A0F711D811D911DA11D20D009F46894CA
:102C10003F912AE0269F11243019305D3193DEF672
:102C2000CF010895462F4770405D4193B3E00FD028
:102C3000C9F7F6CF462F4F70405D4A3318F0495D13
:102C400031FD4052419302D0A9F7EACFB4E0A695F6
:102C50009795879577956795BA95C9F70097610518
:102C6000710508959B01AC010A2E0694579547956E
:102C700037952795BA95C9F7620F731F841F951F63
:102C8000A01D08950E947416A59F900DB49F900DED
:102C9000A49F800D911D11240895B7FF0C94421636
:102CA0000E944216821B930B0895052E97FB1EF47B
:102CB00000940E946C1657FD07D00E94831607FCF3
:102CC00003D04EF40C946C16509540953095219598
:102CD0003F4F4F4F5F4F0895909580957095619548
:102CE0007F4F8F4F9F4F0895A29FB001B39FC001A8
:102CF000A39F700D811D1124911DB29F700D811D28
:102D00001124911D0895A1E21A2EAA1BBB1BFD01DF
:102D10000DC0AA1FBB1FEE1FFF1FA217B307E407BA
:102D2000F50720F0A21BB30BE40BF50B661F771F12
:102D3000881F991F1A9469F76095709580959095F2
:0E2D40009B01AC01BD01CF010895F894FFCFB7
:102D4E00808080808080808080808080030005006D
:102D5E0001000AE0A0E00000E603200001000000F0
:102D6E00E0E0E04A6F73687561204D696C65730031
:102D7E006E373137363234340047616D65204F7609
:042D8E00657200006A
:00000001FF
