:100000000C94C7010C94E4010C94E4010C94E401F9
:100010000C94E4010C94E4010C94E4010C94E401CC
:100020000C94E4010C94E4010C94E4010C94E401BC
:100030000C94E4010C94E4010C94E4010C94E401AC
:100040000C94E4010C94E4010C94E4010C94E4019C
:100050000C94E4010C94E4010C94E4010C94E4018C
:100060000C94E4010C94E4010C94E4010C94E4017C
:100070000C94E4010C94E4010C94E4010C94E4016C
:100080000C94E4010C94E4010C94E4010C94E4015C
:100090000C94E4010C94E4010C94E4010C94E4014C
:1000A0000C94E4010C94E4010C94E4016E616E0084
:1000B000696E6600000000000000005F000000079D
:1000C000000700147F147F14242A7F2A12231308A8
:1000D000646236495522500005030000001C22418D
:1000E000000041221C0014083E081408083E0808BD
:1000F0000050300000080808080800606000002078
:10010000100804023E5149453E00427F40004261D2
:100110005149462141454B311814127F102745455E
:1001200045393C4A49493001710905033649494975
:1001300036064949291E00363600000056360000B2
:10014000081422410014141414140041221408024B
:1001500001510906324979413E7E1111117E7F49D4
:100160004949363E414141227F4141221C7F494954
:1001700049417F090909013E4149497A7F08080838
:100180007F00417F41002040413F017F0814224110
:100190007F404040407F020C027F7F0408107F3E7A
:1001A0004141413E7F090909063E4151215E7F09D7
:1001B000192946464949493101017F01013F404023
:1001C000403F1F2040201F3F4038403F6314081429
:1001D0006307087008076151494543007F414100AA
:1001E00002040810200041417F0004020102044083
:1001F00040404040000102040020545454787F489D
:100200004444383844444420384444487F385454A3
:100210005418087E0901020C5252523E7F08040411
:100220007800447D40002040443D007F1028440079
:1002300000417F40007C041804787C08040478386E
:10024000444444387C14141408081414187C7C08A2
:100250000404084854545420043F4440203C404087
:10026000207C1C2040201C3C4030403C442810286E
:10027000440C5050503C4464544C440008364100F7
:1002800000007F00000041360800100808100878C0
:100290004641467800407A10F35A00A0724E180981
:1002A0000010A5D4E80000E87648170000E40B54DD
:1002B000020000CA9A3B000000E1F50500008096AC
:1002C0009800000040420F000000A08601000000DE
:1002D000102700000000E803000000006400000098
:1002E00000000A00000000000100000000002C7661
:1002F000D888DC674F0823DFC1DFAE59E1B1B7967C
:10030000E5E3E453C63AE651997696E8E6C28426D8
:10031000EB898C9B62ED407C6FFCEFBC9C9F40F2B4
:10032000BAA56FA5F490055A2AF75C936B6CF96730
:100330006DC11BFCE0E40D47FEF520E6B500D0EDF5
:10034000902E0300943577050080841E080000205D
:100350004E0A000000C80C333333330F986E1283FB
:100360001141EF8D2114893BE65516CFFEE6DB18CF
:10037000D1844B381BF77C1D901DA4BBE424203294
:1003800084725E228100C9F124ECA1E53D2711248D
:100390001FBECFEFDAE0DEBFCDBF11E0A0E0B1E0DD
:1003A000ECEAFBE202C005900D92A633B107D9F743
:1003B00013E0A6E3B1E001C01D92AC3AB107E1F74A
:1003C0000E94B2070C94D4150C9400005198219807
:1003D00027985098209885988698229A239A3F9A31
:1003E0000895CF93DF9380913A0190913B018A3039
:1003F0009105BCF0CAE0D0E0BE010E94051240E3C6
:10040000460F60E080E00E94BC0C80913A01909120
:100410003B01BE010E94051240E3480F60E086E008
:1004200004C040E3480F60E080E00E94BC0C48E25A
:1004300060E08FE00E94BC0C40910001405D60E0F4
:1004400084E10E94BC0C49E260E08AE1DF91CF9137
:100450000C94BC0C0E94510B45E151E060E080E03F
:100460000E94EB0D42E251E067E080E00E94EB0D5C
:100470000E943E0B0E94510B0C94500E8091020181
:10048000909103010196813127E292072CF4909319
:1004900003018093020104C0109203011092020133
:1004A00080910201909103010C94E2132F923F92EC
:1004B0004F925F926F927F928F929F92AF92BF9274
:1004C000CF92DF92EF92FF920F931F93CF93DF9320
:1004D000CDB7DEB762970FB6F894DEBF0FBECDBFC3
:1004E0008C015B01DC0114966D917D918D919C9145
:1004F00017970E9453106B017C017E836D83D80196
:100500008D919D910D90BC91A02D8F839887A98787
:10051000BA87D80150968D919D910D90BC91A02DD8
:100520008B879C87AD87BE87F50164817581868145
:1005300097810E94531069837A838B839C832980DF
:100540003A80D50154964D905D906D907C90579770
:100550008D919D910D90BC91A02D8F87988BA98B2B
:10056000BA8BF50180889188A288B388B601882764
:1005700077FD8095982F0E948B10D80154962D916D
:100580003D914D915C9157970E94590F20E030E0CA
:1005900040E85FE30E94580F0E94531062157305F4
:1005A0000CF45BC0B101882777FD8095982F0E94DD
:1005B0008B10A30192010E94590F20E030E040E827
:1005C0005FE30E94580F0E9453106C157D050CF4D8
:1005D00044C06F81788589859A850E9453106B018C
:1005E0007C016F85788989899A890E9453102B0133
:1005F0003C01B601882777FD8095982F0E948B10CB
:100600002B853C854D855E850E94590F20E030E0AA
:1006100040E85FE30E94580F0E945310641575056F
:10062000E4F0B201882777FD8095982F0E948B1007
:10063000A50194010E94590F20E030E040E85FE3FB
:100640000E94580F0E94531031E020E06C157D0588
:100650000CF430E0832F922F02C080E090E062968D
:100660000FB6F894DEBF0FBECDBFDF91CF911F91C3
:100670000F91FF90EF90DF90CF90BF90AF909F9041
:100680008F907F906F905F904F903F902F90089544
:10069000E091A201F091A3018AE290E0918380832E
:1006A00088E190E0938382831582148223E030E016
:1006B00037832683A091A001B091A101B387A287BF
:1006C0001186108627E230E011963C932E93139604
:1006D0009C938E9312971996FC93EE9318971B9602
:1006E0001C921E921A970895CF93DF93E091A00178
:1006F000F091A101C085D1851B861A8611861086CE
:10070000A091A201B091A30116964D915C9117970B
:100710008D919C911197840F951F918380831496DE
:100720002D913C91159712968D919C911397820F64
:10073000931F938382835783468335832483B387B0
:10074000A2871996FC93EE931897F093A301E09378
:10075000A201D093A101C093A001DF91CF91089590
:10076000E091A201F091A3012281338137FF05C0FE
:1007700080E390E09383828308958081918197FF45
:1007800005C084E590E0918380830895213331058D
:100790001CF01382128208958535910514F01182A0
:1007A00010820895499B0FC01092370110923601B4
:1007B000E091A201F091A301178216828DEF9FEFC5
:1007C0009583848310C0199B10C01092370110923A
:1007D0003601E091A201F091A301158214828DEF00
:1007E0009FEF978386832A9A2BC01F9B0FC010927E
:1007F000370110923601E091A201F091A301178216
:10080000168283E090E09583848319C0489B1AC0C8
:1008100010923701109236012FEF80E792E02150BD
:1008200080409040E1F700C00000E091A201F0910B
:10083000A3011582148283E090E0978386832B9A2C
:100840000C94B003189B09C095B188E0892785B93D
:1008500095B184E0892785B908950E94B0032B984B
:100860002A980895EF92FF920F931F93CF93DF93EF
:10087000CDB7DEB72C970FB6F894DEBF0FBECDBF55
:10088000E982FA820B831C832D833E834F83588732
:1008900069877A878B879C876B817C8149815A81A4
:1008A000E091A201F091A3012281338180819181A5
:1008B000FB013296E217F307ACF02E5F3F4F26178D
:1008C000370784F09A012E5F3F4F2817390754F0FD
:1008D0009C012E5F3F4F81E090E02417350724F400
:1008E00080E002C080E090E02C960FB6F894DEBF66
:1008F0000FBECDBFDF91CF911F910F91FF90EF9071
:100900000895EF92FF920F931F93CF93DF93E0919F
:10091000A201F091A301C285D385E880F9800A8104
:100920001B812C813D814E815F81688579858A8517
:100930009B850E943204009731F40A84DB85C02D28
:10094000209759F702C081E090E0DF91CF911F918D
:100950000F91FF90EF9008958CE090E00E94641258
:100960009093A3018093A2018CE090E00E94641216
:100970009093A1018093A0010895CF93DF9380917C
:10098000A2019091A301FC01C285D3850E94F912B6
:100990000A84DB85C02D209711F0CE01F7CFDF91BF
:1009A000CF910895EF92FF920F931F93CF93DF9310
:1009B0007C010091A2011091A3018CE090E00E94C3
:1009C0006412EC019093A3018093A201F801918736
:1009D0008087F70160817181828193810E94531029
:1009E00079836883F70164817581868197810E948C
:1009F00053107B836A83F801868197819F838E835E
:100A0000848195819D838C831B870A87DF91CF9199
:100A10001F910F91FF90EF9008956F927F928F92A8
:100A20009F92AF92BF92DF92EF92FF920F931F932C
:100A3000CF93DF9300D000D0CDB7DEB7E82ED62E0F
:100A400000E010E0612C712C4801AA2497FCA094CE
:100A5000BA2CFE2CF00EB301882777FD8095982FD5
:100A60000E948B1020E030E040E05EE30E9498118D
:100A70000E94C6109B01AC01C501B40129833A83D1
:100A80004B835C830E948B1029813A814B815C816E
:100A90000E94590F0E945310FB01EE5EFE4F4081F1
:100AA00050E0C301809590958770992702C05595B5
:100AB00047958A95E2F74170662D6D0D8F2D0E9446
:100AC000590B8FEF681A780A83E06816710419F6DB
:100AD0000F5F1F4F0330110509F0B4CF0F900F9037
:100AE0000F900F90DF91CF911F910F91FF90EF909A
:100AF000DF90BF90AF909F908F907F906F90089500
:100B000080910001909101010197909301018093E0
:100B100000010E94BD040E94AC040E94480381E0D1
:100B200090E090933701809336010895CF93DF933F
:100B3000C091A201D091A3016A8188810E940D0514
:100B40000A84DB85C02D2097B9F7DF91CF910895F6
:100B5000CF92DF92EF92FF920F931F93CF93DF9389
:100B6000EC0180E3C82ED12C04E510E00E94DD13D7
:100B70007C010E94DD13B6010E9405120797B4F3B1
:100B8000C701B8010E940512819784F30E94DD130A
:100B900064E570E00E940512BC01882777FD80950E
:100BA000982F0E948B10688379838A839B830E948D
:100BB000DD1360E370E00E940512BC01882777FD19
:100BC0008095982F0E948B106C837D838E839F83EA
:100BD000DF91CF911F910F91FF90EF90DF90CF9019
:100BE00008954F925F926F927F928F929F92AF92F1
:100BF000BF92CF92DF92EF92FF920F931F93CF930A
:100C0000DF937C01FC0164817581868197810E945C
:100C100053106B01F701408051806280738080889F
:100C20009188A288B388E091A201F091A30102818A
:100C30001381C081D181882777FD8095982F0E94EC
:100C40008B10F70124893589468957890E94590FED
:100C500020E030E040E85FE30E94580F0E9453100C
:100C6000601771073CF10D5F1F4F0C151D0514F146
:100C7000C301B2010E9453108B01882777FD809534
:100C8000982F0E948B10A50194010E94590F20E01B
:100C900030E040E85FE30E94580F0E9453106C1749
:100CA0007D0744F0229681E090E0C017D10724F43C
:100CB00080E002C080E090E0DF91CF911F910F9122
:100CC000FF90EF90DF90CF90BF90AF909F908F906C
:100CD0007F906F905F904F9008952CE04FE360E01D
:100CE0008FE30E947E0B20E34AE264E28AE20E94E4
:100CF0007E0B2CE04AE26CE080E00C947E0BCF93FC
:100D0000DF93EC01A091A201B091A3011296ED91A5
:100D1000FC9113974D915C91E230F1058CF4329681
:100D2000E617F7076CF02417350754F04E5F5F4F56
:100D300021E090E04C175D070CF420E0822F02C008
:100D400080E090E0DF91CF9108954F925F926F9293
:100D50007F92AF92BF92CF92EF92FF920F931F9329
:100D6000CF93DF93CDB7DEB76D970FB6F894DEBFA4
:100D70000FBECDBF0E94AC040E94DD137C010E9417
:100D8000DD138C8F9D8F0E943E0B0E9448038C8D3B
:100D90009D8D60E370E00E940512BC01882777FDFD
:100DA0008095982F0E948B102B013C01C70164E5B0
:100DB00070E00E940512BC01882777FD8095982F6E
:100DC0000E948B10AB01BC0185E0A82E81E0B82EFB
:100DD00093E0C92E23E0E22E93018201CE01019619
:100DE0000E94690E01E010E038E0F32E44E0E42EAA
:100DF0008091000190910101181619060CF094C021
:100E00000E94510B0E94F1010E943E028091360126
:100E100090913701019711F00E9474030E94D20350
:100E20000E94B003CE0101960E94A30E82EA91E0D7
:100E30000E9496057D9B04C01092390110923801E2
:100E40007E9B04C0109339010093380180913801D2
:100E500090913901892B41F10E946D062CE030E020
:100E60004FE350E060E070E08FE390E00E947F0687
:100E7000892BC1F420E330E04AE250E064E270E004
:100E80008AE290E00E947F06892B61F42CE030E03A
:100E90004AE250E06CE070E080E090E00E947F0663
:100EA000892B11F00E9480050E948104892B11F08A
:100EB0000E948005CE0101960E94F105892B39F12F
:100EC000CE0101960E94D204CE0101960E94A8058F
:100ED0008091380190913901892B49F080913A0134
:100EE00090913B01029690933B0180933A0180914F
:100EF0003A0190913B01019690933B0180933A0116
:100F000085B18F2585B985B18E2585B9479A0E940F
:100F10003E0B2FEB84ED91E0215080409040E1F7B3
:100F200000C00000479864CF0E94510B4BE251E093
:100F300064E185E20E94EB0D0E943E0B6D960FB6B8
:100F4000F894DEBF0FBECDBFDF91CF911F910F91FF
:100F5000FF90EF90CF90BF90AF907F906F905F9099
:100F60004F900895E1E6F0E080E8808381E080839F
:100F70008FE30E94200E0E942A020E94A50680E0B4
:100F800090E00895A3E1B0E0E8ECF7E00C941912CA
:100F90006C014B012A01FC0117821682838181FFBB
:100FA00043C3AE014F5F5F4F3A01F6019381F401F5
:100FB00093FD859193FF81914F01882309F430C3FC
:100FC000853239F493FD859193FF81914F018532EC
:100FD00039F4B60190E00E94DB1452012501E5CFFF
:100FE00010E0F12C20E02032A0F48B3269F030F4D4
:100FF000803259F0833269F420612CC08D3239F08F
:10100000803339F4216026C02260246023C0286028
:1010100021C027FD27C030ED380F3A3078F426FF85
:1010200006C0FAE01F9F300D1124132F13C04AE0B1
:10103000F49E300D1124F32E20620CC08E3221F468
:1010400026FDEEC2206406C08C3611F4206802C072
:10105000883641F4F40193FD859193FF81914F010E
:101060008111C1CF9BEB980F933018F42061805E03
:1010700006C09BE9980F933008F071C12F7E26FFC0
:1010800016E02F73322E853619F42064322E08C0F4
:10109000863621F4F22FF0683F2E02C01111115054
:1010A00037FE07C01C3350F4EE24E394E10E27E032
:1010B0000BC0183038F027E017E005C027E04CE3FC
:1010C000E42E02C0212FE12C520144E0A40EB11CF9
:1010D000F20160817181828193810E2DA3010E94B2
:1010E000ED132C01098100FF02C003FF07C031FC92
:1010F00008C032FE09C030E2232E07C02DE2222EA6
:1011000004C09BE2292E01C0212C802F8C7019F085
:10111000211068C2A8C237FE0FC0E40C04FF04C04F
:101120008A81813309F4EA941E1474F5F8E0FE15FF
:1011300078F588E0E82E2CC036FC2AC0812F90E09C
:10114000841595059CF02CEF42162FEF520674F093
:10115000432D4068342E0AC0E2E0F0E0EC0FFD1FA2
:10116000E10FF11D8081803319F411501111F4CF7A
:1011700037FE0EC0EE24E394E10E812F90E0481676
:1011800059062CF4141904C0EE24E39401C010E0B5
:1011900037FE06C01414150434F4C201019605C0CC
:1011A00085E090E002C081E090E0211001961123DB
:1011B00031F0212F30E02F5F3F4F820F931F2F2DF3
:1011C00030E08217930714F4F81A01C0F12C832D34
:1011D000897049F4FF2039F0B60180E290E00E9466
:1011E000DB14FA94F7CF222029F0B601822D90E08B
:1011F0000E94DB1433FC09C0FF2039F0B60180E304
:1012000090E00E94DB14FA94F7CF37FE5AC0942D79
:10121000852D57FE02C090E080E0292E382E20E078
:1012200030E0A2014E1951095D874C87A201421995
:1012300053095F874E87612F70E044275527461B6F
:10124000570B598B488B5FEF2516350649F4B601CD
:101250008EE290E02A8B3B8B0E94DB143B892A892B
:10126000421453046CF04C855D854215530544F4DB
:10127000EE85FF85E20FF31FE60DF71D818101C0AA
:1012800080E351E0251A31082F5F3F4F4889598983
:10129000241635064CF0B60190E02A8B3B8B0E9459
:1012A000DB142A893B89CFCF2414350439F49A8181
:1012B000963318F4953311F404FF81E3B60190E0FE
:1012C0004BC08A81813309F00F7EB60190E00E9405
:1012D000DB14111105C034FC18C085E690E017C07E
:1012E000B6018EE290E00E94DB1482E0EE24E394EB
:1012F000E80EF301E80FF11D8081B60190E00E9435
:10130000DB1411508E2D91F7E6CF85E490E0B60105
:101310000E94DB1457FC05C04114510439F404FF4A
:1013200005C05194419451088DE201C08BE2B60191
:1013300090E00E94DB1480E39AE0491651042CF0FF
:101340008F5F5AE0451A5108F7CFB60190E00E942E
:10135000DB14B601C201C0960E94DB1457C183366C
:1013600031F0833779F0833509F058C021C052013C
:10137000E2E0AE0EB11CF2018081898301E010E051
:10138000230114C05201F2E0AF0EB11CF201408003
:10139000518026FF03C0612F70E002C06FEF7FEF26
:1013A000C2012A8B0E94D0148C012A892F7715C084
:1013B0005201F2E0AF0EB11CF2014080518026FFD5
:1013C00003C0612F70E002C06FEF7FEFC2012A8B74
:1013D0000E94C5148C012A892068322E23FD1AC070
:1013E0008F2D90E008171907A8F4B60180E290E06D
:1013F0000E94DB14FA94F4CFF20137FC859137FE9A
:1014000081912F01B60190E00E94DB14F110FA9453
:10141000015011090115110579F7F8C0843611F052
:10142000893659F5520127FF09C0F4E0AF0EB11C0F
:10143000F20160817181828193810AC0F2E0AF0E76
:10144000B11CF20160817181882777FD8095982F0A
:101450002F76322E97FF09C09095809570956195F3
:101460007F4F8F4F9F4F2068322E2AE030E0A3013C
:101470000E941315E82EE6183FC0022F853721F48D
:101480000F7E2AE030E01DC0097F8F3691F018F4FE
:10149000883559F0C5C0803719F0883711F0C0C0C1
:1014A000006104FF09C0046007C024FF08C0066093
:1014B00006C028E030E005C020E130E002C020E1B5
:1014C00032E0520107FF09C0F4E0AF0EB11CF20197
:1014D000608171818281938108C0F2E0AF0EB11CFE
:1014E000F2016081718180E090E0A3010E941315F8
:1014F000E82EE6180F77302E36FE0BC0332D3E7FD8
:10150000E11650F434FE0AC032FC08C0332D3E7E92
:1015100005C00E2D332D03C00E2D01C0012F34FF49
:101520000CC0FE01EE0DF11D8081803311F4397E77
:1015300008C032FF05C00E5F04C0832F867809F013
:101540000F5F33FD13C030FF06C01E2D0F1518F4BA
:101550001F0D101B0F2D0F1568F4B60180E290E0EF
:101560003B8B0E94DB140F5F3B89F5CF0F1510F406
:10157000F01A01C0F12C34FF12C0B60180E390E0F4
:101580003B8B0E94DB143B8932FF17C031FD03C047
:1015900088E790E002C088E590E0B6010CC0832F98
:1015A000867859F031FF02C08BE201C080E237FD3E
:1015B0008DE2B60190E00E94DB14E11638F4B6012A
:1015C00080E390E00E94DB141150F7CFEA94F3011E
:1015D000EE0DF11D8081B60190E00E94DB14E11058
:1015E000F5CF14C0F4E0FF1558F584E0F81A33FE87
:1015F0001EC0211026C003FF2AC00CEA10E0F32D04
:10160000F0713F2EF8018491811124C0FF2009F46C
:10161000E5CCB60180E290E00E94DB14FA94F6CFAC
:10162000F6018681978126C08FEF9FEF23C0B60118
:1016300080E290E00E94DB14FA94F110F8CFD9CF49
:10164000F12CB601822D90E00E94DB14D4CF00EB88
:1016500010E0D5CF31108052B60190E00E94DB142B
:101660000F5F1F4FCFCF23E02F1510F483E0BECFC5
:10167000F12CC1CF6396E2E10C943512CF93DF9346
:1016800060E080E00E945D0EC0EBD1E0699181E0F6
:101690000E94020E83E0C83AD807C1F7DF91CF91CC
:1016A0000895E0EBF1E0119283E0E83AF807D9F70A
:1016B0000895982F843508F56033F8F4862F8695C1
:1016C00086958695677024E5829FF0011124892F05
:1016D00090E08E0F9F1FFC01E055FE4F81E090E0EF
:1016E00001C0880F6A95EAF7442319F09081892B8D
:1016F00003C0809590818923808308952F923F9223
:101700004F925F926F927F928F929F92AF92BF9211
:10171000CF92DF92EF92FF920F931F93CF93DF93BD
:10172000CDB7DEB72D970FB6F894DEBF0FBECDBF95
:10173000F82E262ED42EE22E841320C0C62ED12CB5
:10174000022F10E02E1468F40C151D050CF4FBC0DC
:1017500041E06C2D8F2D0E94590B9FEFC91AD90AB9
:10176000F1CFC016D1060CF4EEC041E06C2D8F2DE8
:101770000E94590BE1E0CE1AD108E4CF082F10E007
:10178000242F30E03D872C876E111EC0FD1470F4AD
:101790008C859D85801791070CF4D5C041E0622DA2
:1017A000802F0E94590B0F5F1F4FF0CFEC85FD85F6
:1017B0000E171F070CF4C7C041E0622D802F0E9456
:1017C000590B01501109E2CF6C857D85601B710BAF
:1017D000882777FD8095982F0E948B102B013C0164
:1017E0002E2D30E03E832D83312CB901621973090F
:1017F000882777FD8095982F0E948B104B015C0104
:10180000A30192010E94E10F69837A838B839C83F9
:1018100020E030E0A9010E94931187FF0BC0A301D3
:101820009201C501B40190580E94E10F69837A8347
:101830008B839C83C12CD12C760120E030E0A90160
:10184000C301B2010E94931118160CF076C02C85CA
:101850003D85201731070CF476C00B8741E0622DDF
:10186000802F0E94590B29813A814B815C81C701ED
:10187000B6010E94590F6B017C0120E030E040E08E
:101880005FE30E94931187FF0DC020E030E0A901C3
:10189000C301B2010E94931118160CF04BC00F5FE8
:1018A0001F4FCBCF20E030E0A901C501B4010E9459
:1018B00093111816CCF58D819E81821593052CF31A
:1018C00041E0622D8B850E94590B81E090E0988762
:1018D0008F8320E030E0A901C501B4010E9493117B
:1018E000181614F018861F82E1E0F0E0FA87E98705
:1018F00020E030E0A901C501B4010E94DC0F87FDA2
:1019000002C01A8619868F81988529853A85821B9F
:10191000930B280E391E20E030E040E85FE3C7015A
:10192000B6010E94580FA7CFED81FE812E163F060B
:101930003CF6ABCF0150110980CF8C859D850817EF
:1019400019070CF08ACF2D960FB6F894DEBF0FBEA4
:10195000CDBFDF91CF911F910F91FF90EF90DF905E
:10196000CF90BF90AF909F908F907F906F905F903F
:101970004F903F902F9008957F928F929F92AF92B9
:10198000BF92CF92DF92EF92FF920F931F93CF936C
:10199000DF93982E862E25E0429F7001112400E0EF
:1019A00010E030EAE31AF108AA24A394B12CC7018D
:1019B000800F911F9C012C543F4F6901C0E0D0E083
:1019C000792C700EC830D105C9F0F601449150E071
:1019D00095010C2E02C0220F331F0A94E2F7422316
:1019E00053230C2E02C0559547950A94E2F76C2FAD
:1019F000680D872D0E94590B2196E4CF0F5F1F4F72
:101A000005301105A1F6DF91CF911F910F91FF9045
:101A1000EF90DF90CF90BF90AF909F908F907F908E
:101A200008955F926F927F928F929F92AF92BF9232
:101A3000CF92DF92EF92FF920F931F93CF93DF939A
:101A4000F82EE62ECA014A3051057CF425E0249F89
:101A50005001259FB00C112400E010E020E5A20EFB
:101A6000B11C88248394912C7FC06AE070E00E94AE
:101A700005124B0125E0289F5001299FB00C11242D
:101A800000E010E03BE4A30EB11C66246394712CCB
:101A9000C501800F911FFC01EC54FF4F6F01C0E0A6
:101AA000D0E05F2C500EC830D105C9F0F60144914A
:101AB00050E093010C2E02C0220F331F0A94E2F76C
:101AC000422353230C2E02C0559547950A94E2F702
:101AD0006C2F6E0D852D0E94590B2196E4CF0F5F60
:101AE0001F4F0A301105A1F685E0889D5001899DA0
:101AF000B00C112400E010E020E5A20EB11C8824F7
:101B00008394912CC501800F911F9C012C543F4F51
:101B10006901C0E0D0E07F2C700EC830D105C9F05B
:101B2000F601449150E094010C2E02C0220F331FA5
:101B30000A94E2F7422353230C2E02C05595479591
:101B40000A94E2F76C2F6E0D872D0E94590B219697
:101B5000E4CF0F5F1F4F05301105A1F62CC00F5FBA
:101B60001F4F0A30110539F1C501800F911F9C01EB
:101B70002C543F4F6901C0E0D0E07F2C700EC8307C
:101B8000D10569F3F601449150E094010C2E02C096
:101B9000220F331F0A94E2F7422353230C2E02C074
:101BA000559547950A94E2F76C2F6E0D872D0E948C
:101BB000590B2196E4CFDF91CF911F910F91FF90A8
:101BC000EF90DF90CF90BF90AF909F908F907F90DD
:101BD0006F905F9008950F931F93CF93DF93D62F4D
:101BE0008A01C82FF80141918F01442331F06D2FF4
:101BF0008C2F0E94BC0CCB5FF5CFDF91CF911F9152
:101C00000F91089525B130E2839FC00111242F7DEB
:101C1000822B85B95F9887E090E070E08F989B01F8
:101C2000082E02C0359527950A94E2F720FF02C0DE
:101C30002E9A01C02E988F9A019780F75F9A089587
:101C4000CF93C82F579A249A259A269A879A2C9828
:101C50005F9A2C9A61E280E00E94020E6C2F60680D
:101C600080E00E94020E64E080E00E94020E63E1C8
:101C700080E00E94020E6CE080E00E94020E60E2B2
:101C800080E00E94020E6CE080E00E94020E60E4A0
:101C900080E00E94020E60E880E0CF910C94020E7A
:101CA000CF93DF93C8EFD1E060E081E00E94020EA5
:101CB0002197D1F7DF91CF910895CF93C82F60641A
:101CC00080E00E94020E6C2F606880E0CF910C943F
:101CD000020EAF92BF92CF92EF920F931F93CF93CA
:101CE000DF93EC01488359836A837B830C831D83D4
:101CF0002E833F836E2D70E080E090E00E9489107B
:101D0000688B798B8A8B9B8B6C2D70E080E090E0E8
:101D10000E9489106C8B7D8B8E8B9F8BBA8EA98EC7
:101D200081E0888F188619861A861B861C861D8678
:101D30001E861F86DF91CF911F910F91EF90CF905C
:101D4000BF90AF9008952F923F924F925F926F9203
:101D50007F929F92AF92BF92CF92DF92EF92FF92CB
:101D60000F931F93CF93DF9300D000D0CDB7DEB792
:101D7000FC01208D222309F485C01C0120E030E005
:101D800040E05EE360897189828993890E9498119D
:101D90000E94C50F0E945A10962EB12C6B2D70E038
:101DA00080E090E00E948B10F101248935894689FA
:101DB00057890E94DC0F87FF65C0B99C6001112420
:101DC000A12CEE24D7FCE094FE2C0A2D10E0B801E3
:101DD000882777FD8095982F0E948B102B013C015E
:101DE000F10120893189428953890E94DC0F87FFE4
:101DF00047C020E030E040E05EE3C301B2010E9452
:101E000098110E94C6109B01AC01C701B60129833D
:101E10003A834C835B830E948B1029813A814C81E9
:101E20005B810E94590F0E945310F101218D328D68
:101E3000F901E60FF71F408150E0009510950770FB
:101E4000112702C0559547950A95E2F74170F101B7
:101E500064817581868197814C830E945A101B2D65
:101E6000160FF10160817181828193810E945A1065
:101E7000862F4C81612F8A0D0E94590BA394A5CF08
:101E8000B3948CCF0F900F900F900F90DF91CF9164
:101E90001F910F91FF90EF90DF90CF90BF90AF9088
:101EA0009F907F906F905F904F903F902F900895FC
:101EB0005058BB27AA270E94700F0C9441110E9412
:101EC000331138F00E943A1120F039F49F3F19F491
:101ED00026F40C9430110EF4E095E7FB0C940111FC
:101EE000E92F0E94521158F3BA176207730784074B
:101EF000950720F079F4A6F50C948C110EF4E0957A
:101F00000B2EBA2FA02D0B01B90190010C01CA01B3
:101F1000A0011124FF27591B99F0593F50F4503E5E
:101F200068F11A16F040A22F232F342F4427585F50
:101F3000F3CF469537952795A795F0405395C9F768
:101F40007EF41F16BA0B620B730B840BBAF0915020
:101F5000A1F0FF0FBB1F661F771F881FC2F70EC0BF
:101F6000BA0F621F731F841F48F487957795679592
:101F7000B795F7959E3F08F0B0CF9395880F08F07E
:101F80009927EE0F9795879508950E94741190F008
:101F90009F3748F4911116F40C948D1160E070E0B5
:101FA00080E89FE3089526F01B16611D711D811DB9
:101FB0000C9407110C9422110E94DD1008F481E0AA
:101FC00008950E94F50F0C9441110E943A1158F0A7
:101FD0000E94331140F029F45F3F29F00C94011165
:101FE00051110C948D110C9430110E94521168F310
:101FF0009923B1F3552391F3951B550BBB27AA27C2
:1020000062177307840738F09F5F5F4F220F331FFB
:10201000441FAA1FA9F335D00E2E3AF0E0E832D0C3
:1020200091505040E695001CCAF72BD0FE2F29D0C6
:10203000660F771F881FBB1F261737074807AB0798
:10204000B0E809F0BB0B802DBF01FF2793585F4F0D
:102050003AF09E3F510578F00C9401110C948D11CB
:102060005F3FE4F3983ED4F3869577956795B795EF
:10207000F7959F5FC9F7880F911D9695879597F9FA
:102080000895E1E0660F771F881FBB1F6217730773
:102090008407BA0720F0621B730B840BBA0BEE1F88
:1020A00088F7E09508950E945A106894B1110C9435
:1020B0008D1108950E945A1188F09F5798F0B92FFA
:1020C0009927B751B0F0E1F0660F771F881F991F6D
:1020D0001AF0BA95C9F714C0B13091F00E948C1172
:1020E000B1E008950C948C11672F782F8827B85F82
:1020F00039F0B93FCCF3869577956795B395D9F7C5
:102100003EF490958095709561957F4F8F4F9F4FCE
:102110000895E89409C097FB3EF4909580957095DA
:1021200061957F4F8F4F9F4F9923A9F0F92F96E923
:10213000BB279395F695879577956795B795F11198
:10214000F8CFFAF4BB0F11F460FF1BC06F5F7F4F35
:102150008F4F9F4F16C0882311F096E911C0772347
:1021600021F09EE8872F762F05C0662371F096E850
:10217000862F70E060E02AF09A95660F771F881F1F
:10218000DAF7880F9695879597F908950E9474114C
:1021900090F09F3748F4911116F00C948D1160E087
:1021A00070E080E89FEB089526F41B16611D711DF9
:1021B000811D0C9407110C942211990F0008550FE2
:1021C000AA0BE0E8FEEF16161706E807F907C0F0BD
:1021D00012161306E407F50798F0621B730B840BC5
:1021E000950B39F40A2661F0232B242B252B21F49F
:1021F00008950A2609F4A140A6958FEF811D811D3F
:10220000089597F99F6780E870E060E0089588235B
:1022100071F4772321F09850872B762F07C066231F
:1022200011F499270DC09051862B70E060E02AF0E0
:102230009A95660F771F881FDAF7880F969587950E
:1022400097F908959F3F31F0915020F48795779545
:102250006795B795880F911D9695879597F908957D
:102260009FEF80EC089500240A94161617061806AE
:102270000906089500240A9412161306140605068A
:102280000895092E0394000C11F4882352F0BB0F1B
:1022900040F4BF2B11F460FF04C06F5F7F4F8F4F7E
:1022A0009F4F089557FD9058440F551F59F05F3FB9
:1022B00071F04795880F97FB991F61F09F3F79F068
:1022C00087950895121613061406551FF2CF4695EA
:1022D000F1DF08C0161617061806991FF1CF86956C
:1022E00071056105089408950E945A11A0F0BEE797
:1022F000B91788F4BB279F3860F41616B11D672FF5
:10230000782F8827985FF7CF869577956795B11DC9
:1023100093959639C8F30895E894BB2766277727E5
:10232000CB0197F908950E94DD1008F48FEF08950E
:102330000E94AB110C9441110E94331138F00E949D
:102340003A1120F0952311F00C9401110C943011E6
:1023500011240C948D110E94521170F3959FC1F3BA
:10236000950F50E0551F629FF001729FBB27F00D43
:10237000B11D639FAA27F00DB11DAA1F649F662798
:10238000B00DA11D661F829F2227B00DA11D621FE7
:10239000739FB00DA11D621F839FA00D611D221FA1
:1023A000749F3327A00D611D231F849F600D211D85
:1023B000822F762F6A2F11249F5750409AF0F1F008
:1023C00088234AF0EE0FFF1FBB1F661F771F881F71
:1023D00091505040A9F79E3F510580F00C94011197
:1023E0000C948D115F3FE4F3983ED4F38695779576
:1023F0006795B795F795E7959F5FC1F7FE2B880F17
:10240000911D9695879597F9089597FB072E16F4D9
:10241000009407D077FD09D00E94501207FC05D028
:102420003EF4909581959F4F0895709561957F4FEB
:1024300008952F923F924F925F926F927F928F9268
:102440009F92AF92BF92CF92DF92EF92FF920F9343
:102450001F93CF93DF93CDB7DEB7CA1BDB0B0FB64D
:10246000F894DEBF0FBECDBF09942A88398848880A
:102470005F846E847D848C849B84AA84B984C884A0
:10248000DF80EE80FD800C811B81AA81B981CE0F97
:10249000D11D0FB6F894DEBF0FBECDBFED0108957C
:1024A000AA1BBB1B51E107C0AA1FBB1FA617B7077A
:1024B00010F0A61BB70B881F991F5A95A9F7809596
:1024C0009095BC01CD010895CF93DF9382309105A3
:1024D00010F482E090E0E091AA03F091AB0320E0D9
:1024E00030E0C0E0D0E0309711F1408151814817D1
:1024F0005907C0F04817590761F4828193812097EA
:1025000019F09B838A832BC09093AB038093AA031B
:1025100026C02115310519F04217530718F49A0106
:10252000BE01DF01EF010280F381E02DDCCF211538
:10253000310509F1281B390B2430310590F412962E
:102540008D919C9113976115710521F0FB01938387
:10255000828304C09093AB038093AA03FD0132965B
:1025600044C0FD01E20FF31F819391932250310982
:102570002D933C933AC02091A8033091A903232BBB
:1025800041F420910A0130910B013093A90320936B
:10259000A80320910801309109012115310541F46A
:1025A0002DB73EB740910C0150910D01241B350B06
:1025B000E091A803F091A903E217F307A0F42E1B02
:1025C0003F0B2817390778F0AC014E5F5F4F241797
:1025D000350748F04E0F5F1F5093A9034093A8039F
:1025E0008193919302C0E0E0F0E0CF01DF91CF91C1
:1025F00008950F931F93CF93DF93009709F48CC036
:10260000FC013297138212820091AA031091AB034E
:102610000115110581F420813181820F931F2091D2
:10262000A8033091A9032817390779F5F093A90376
:10263000E093A80371C0D80140E050E0AE17BF0797
:1026400050F412962D913C911397AD01211531054F
:1026500009F1D901F3CF9D01DA013383228360812F
:102660007181860F971F8217930769F4EC01288107
:102670003981260F371F2E5F3F4F318320838A8198
:102680009B8193838283452B29F4F093AB03E093E2
:10269000AA0342C01396FC93EE931297ED01499161
:1026A00059919E01240F351FE217F30771F48081C1
:1026B0009181840F951F029611969C938E9382812F
:1026C000938113969C938E931297E0E0F0E0D801EB
:1026D00012968D919C911397009719F0F8018C0137
:1026E000F6CF8D919C9198012E5F3F4F820F931FE3
:1026F0002091A8033091A9032817390769F430976E
:1027000029F41092AB031092AA0302C01382128222
:102710001093A9030093A803DF91CF911F910F910C
:1027200008958F929F92AF92BF92CF92DF92EF92D5
:10273000FF92CF93DF93EC01688179818A819B813D
:10274000611571058105910521F464E279ED8BE550
:1027500097E02DE133EF41E050E00E9484154901FC
:102760005A019B01AC01A7EAB1E40E9471156B010B
:102770007C01ACEEB4EFA50194010E947F15DC0151
:10278000CB018C0D9D1DAE1DBF1DB7FF03C0019772
:10279000A109B04888839983AA83BB839F77DF917F
:1027A000CF91FF90EF90DF90CF90BF90AF909F9030
:1027B0008F9008950E94911308958EE091E00E94F9
:1027C00091130895A0E0B0E080930E0190930F0163
:1027D000A0931001B09311010895283008F027E06C
:1027E0003327DA01990F311D87FD9160009661054D
:1027F000710539F432602E5F3D9330E32A95E1F79D
:1028000008959F3F30F080387105610509F03C5F05
:102810003C5F3D93913008F08068911DDF93CF932A
:102820001F930F93FF92EF92192F987F9695E92FA0
:1028300096959695E90FFF27E251FD4F992733278B
:10284000EE24FF24A701E70105900894079428F4DB
:10285000360FE71EF81E491F511D660F771F881F90
:10286000991F0694A1F70590079428F4E70EF81E27
:10287000491F561FC11D770F881F991F661F069499
:10288000A1F70590079428F4F80E491F561FC71F9B
:10289000D11D880F991F661F771F0694A1F7059019
:1028A000079420F4490F561FC71FD81F990F661FA2
:1028B000771F881F0694A9F784911095177041F02F
:1028C000D695C79557954795F794E7941A95C1F70C
:1028D000E4E9F2E068941590159135916591959130
:1028E00005907FE27395E118F10A430B560BC90B73
:1028F000D009C0F7E10CF11E431F561FC91FD01DA0
:102900007EF4703311F48A95E6CFE894015030F0EC
:10291000080F0AF40027021708F4202F2395022F2E
:102920007A3328F079E37D932A95E9F710C07D93F7
:102930002A9589F606949795679537951795179474
:10294000E118F10A430B560BC90BD00998F02395F7
:102950007E9173957A3308F070E37C932013B8F777
:102960007E9170617D9330F0839571E37D9370E388
:102970002A95E1F71124EF90FF900F911F91CF91CD
:10298000DF91992787FD90950895FC01059061508E
:1029900070400110D8F7809590958E0F9F1F089575
:1029A000FC016150704001900110D8F7809590951E
:1029B0008E0F9F1F08950F931F93CF93DF93FB01FB
:1029C000238121FD03C08FEF9FEF28C022FF16C097
:1029D00046815781248135814217530744F4A081F1
:1029E000B1819D012F5F3F4F318320838C932681DE
:1029F00037812F5F3F4F3783268310C0EB01092FAC
:102A0000182F0084F185E02D0995892BE1F68E8140
:102A10009F8101969F838E83812F902FDF91CF918D
:102A20001F910F910895FA01AA27283051F1203102
:102A300081F1E8946F936E7F6E5F7F4F8F4F9F4F52
:102A4000AF4FB1E03ED0B4E03CD0670F781F891F94
:102A50009A1FA11D680F791F8A1F911DA11D6A0F62
:102A6000711D811D911DA11D20D009F468943F9115
:102A70002AE0269F11243019305D3193DEF6CF0114
:102A80000895462F4770405D4193B3E00FD0C9F7DA
:102A9000F6CF462F4F70405D4A3318F0495D31FD47
:102AA0004052419302D0A9F7EACFB4E0A69597959A
:102AB000879577956795BA95C9F700976105710570
:102AC00008959B01AC010A2E0694579547953795BA
:102AD0002795BA95C9F7620F731F841F951FA01D14
:102AE00008950E94A315A59F900DB49F900DA49FDB
:102AF000800D911D11240895B7FF0C9471150E944B
:102B00007115821B930B0895052E97FB1EF40094FC
:102B10000E949B1557FD07D00E94B21507FC03D0F9
:102B20004EF40C949B1550954095309521953F4F50
:102B30004F4F5F4F089590958095709561957F4FA9
:102B40008F4F9F4F0895A29FB001B39FC001A39FD5
:102B5000700D811D1124911DB29F700D811D1124D6
:102B6000911D0895A1E21A2EAA1BBB1BFD010DC0E9
:102B7000AA1FBB1FEE1FFF1FA217B307E407F5072D
:102B800020F0A21BB30BE40BF50B661F771F881F09
:102B9000991F1A9469F760957095809590959B019F
:0C2BA000AC01BD01CF010895F894FFCFF7
:102BAC00050001000AE0A0E00000AC0320000100D9
:102BBC000000E0E0E04A6F73687561204D696C6558
:102BCC0073006E373137363234340047616D65200F
:062BDC004F766572000057
:00000001FF
